{
    "_format": "hh-sol-artifact-1",
    "contractName": "DexV3Manager",
    "sourceName": "contracts/DexV3Manager.sol",
    "abi": [
        {
            "inputs": [],
            "stateMutability": "nonpayable",
            "type": "constructor"
        },
        {
            "anonymous": false,
            "inputs": [
                {
                    "indexed": false,
                    "internalType": "string",
                    "name": "message",
                    "type": "string"
                },
                {
                    "indexed": false,
                    "internalType": "address",
                    "name": "data",
                    "type": "address"
                }
            ],
            "name": "DebugLog",
            "type": "event"
        },
        {
            "anonymous": false,
            "inputs": [
                {
                    "indexed": false,
                    "internalType": "string",
                    "name": "message",
                    "type": "string"
                },
                {
                    "indexed": false,
                    "internalType": "int256",
                    "name": "data",
                    "type": "int256"
                }
            ],
            "name": "DebugLogInt",
            "type": "event"
        },
        {
            "inputs": [],
            "name": "WETH9",
            "outputs": [
                {
                    "internalType": "address",
                    "name": "",
                    "type": "address"
                }
            ],
            "stateMutability": "view",
            "type": "function"
        },
        {
            "inputs": [
                {
                    "internalType": "int256",
                    "name": "amount0Delta",
                    "type": "int256"
                },
                {
                    "internalType": "int256",
                    "name": "amount1Delta",
                    "type": "int256"
                },
                {
                    "internalType": "bytes",
                    "name": "_data",
                    "type": "bytes"
                }
            ],
            "name": "algebraSwapCallback",
            "outputs": [],
            "stateMutability": "nonpayable",
            "type": "function"
        },
        {
            "inputs": [
                {
                    "components": [
                        {
                            "internalType": "uint8",
                            "name": "swapType",
                            "type": "uint8"
                        },
                        {
                            "internalType": "address",
                            "name": "dexAddress",
                            "type": "address"
                        },
                        {
                            "internalType": "uint8",
                            "name": "abiIndex",
                            "type": "uint8"
                        },
                        {
                            "internalType": "uint8",
                            "name": "inputTokenIndex",
                            "type": "uint8"
                        },
                        {
                            "internalType": "address",
                            "name": "inputToken",
                            "type": "address"
                        },
                        {
                            "internalType": "address",
                            "name": "outputToken",
                            "type": "address"
                        },
                        {
                            "internalType": "uint256",
                            "name": "amountIn",
                            "type": "uint256"
                        },
                        {
                            "internalType": "uint256",
                            "name": "amountOut",
                            "type": "uint256"
                        },
                        {
                            "internalType": "uint256",
                            "name": "glmrWrapAmount",
                            "type": "uint256"
                        },
                        {
                            "internalType": "uint24",
                            "name": "fee",
                            "type": "uint24"
                        },
                        {
                            "internalType": "uint160",
                            "name": "sqrtPriceLimitX96",
                            "type": "uint160"
                        },
                        {
                            "internalType": "bytes",
                            "name": "data",
                            "type": "bytes"
                        }
                    ],
                    "internalType": "struct DexV3Manager.ManagerSwapParams[]",
                    "name": "swapParams",
                    "type": "tuple[]"
                }
            ],
            "name": "executeSwaps",
            "outputs": [
                {
                    "internalType": "uint256",
                    "name": "amountOut",
                    "type": "uint256"
                }
            ],
            "stateMutability": "payable",
            "type": "function"
        },
        {
            "inputs": [],
            "name": "factory",
            "outputs": [
                {
                    "internalType": "address",
                    "name": "",
                    "type": "address"
                }
            ],
            "stateMutability": "view",
            "type": "function"
        },
        {
            "inputs": [],
            "name": "refundETH",
            "outputs": [],
            "stateMutability": "payable",
            "type": "function"
        },
        {
            "inputs": [
                {
                    "components": [
                        {
                            "internalType": "address",
                            "name": "tokenIn",
                            "type": "address"
                        },
                        {
                            "internalType": "address",
                            "name": "tokenOut",
                            "type": "address"
                        },
                        {
                            "internalType": "uint24",
                            "name": "fee",
                            "type": "uint24"
                        },
                        {
                            "internalType": "uint256",
                            "name": "amountIn",
                            "type": "uint256"
                        },
                        {
                            "internalType": "uint160",
                            "name": "sqrtPriceLimitX96",
                            "type": "uint160"
                        },
                        {
                            "internalType": "address",
                            "name": "poolAddress",
                            "type": "address"
                        }
                    ],
                    "internalType": "struct IUniswapV3Manager.SwapSingleParams",
                    "name": "params",
                    "type": "tuple"
                }
            ],
            "name": "swapAlgebraSingle",
            "outputs": [
                {
                    "internalType": "uint256",
                    "name": "amountOut",
                    "type": "uint256"
                }
            ],
            "stateMutability": "nonpayable",
            "type": "function"
        },
        {
            "inputs": [
                {
                    "components": [
                        {
                            "internalType": "address",
                            "name": "tokenIn",
                            "type": "address"
                        },
                        {
                            "internalType": "address",
                            "name": "tokenOut",
                            "type": "address"
                        },
                        {
                            "internalType": "uint24",
                            "name": "fee",
                            "type": "uint24"
                        },
                        {
                            "internalType": "uint256",
                            "name": "amountIn",
                            "type": "uint256"
                        },
                        {
                            "internalType": "uint160",
                            "name": "sqrtPriceLimitX96",
                            "type": "uint160"
                        },
                        {
                            "internalType": "address",
                            "name": "poolAddress",
                            "type": "address"
                        }
                    ],
                    "internalType": "struct IUniswapV3Manager.SwapSingleParams",
                    "name": "params",
                    "type": "tuple"
                },
                {
                    "internalType": "uint8",
                    "name": "abiIndex",
                    "type": "uint8"
                }
            ],
            "name": "swapSingle",
            "outputs": [
                {
                    "internalType": "uint256",
                    "name": "amountOut",
                    "type": "uint256"
                }
            ],
            "stateMutability": "nonpayable",
            "type": "function"
        },
        {
            "inputs": [
                {
                    "components": [
                        {
                            "internalType": "address",
                            "name": "tokenIn",
                            "type": "address"
                        },
                        {
                            "internalType": "address",
                            "name": "tokenOut",
                            "type": "address"
                        },
                        {
                            "internalType": "uint24",
                            "name": "fee",
                            "type": "uint24"
                        },
                        {
                            "internalType": "uint256",
                            "name": "amountIn",
                            "type": "uint256"
                        },
                        {
                            "internalType": "uint160",
                            "name": "sqrtPriceLimitX96",
                            "type": "uint160"
                        },
                        {
                            "internalType": "address",
                            "name": "poolAddress",
                            "type": "address"
                        }
                    ],
                    "internalType": "struct IUniswapV3Manager.SwapSingleParams",
                    "name": "params",
                    "type": "tuple"
                }
            ],
            "name": "swapUniSingle",
            "outputs": [
                {
                    "internalType": "uint256",
                    "name": "amountOut",
                    "type": "uint256"
                }
            ],
            "stateMutability": "nonpayable",
            "type": "function"
        },
        {
            "inputs": [
                {
                    "internalType": "address",
                    "name": "token",
                    "type": "address"
                },
                {
                    "internalType": "uint256",
                    "name": "amountMinimum",
                    "type": "uint256"
                },
                {
                    "internalType": "address",
                    "name": "recipient",
                    "type": "address"
                }
            ],
            "name": "sweepToken",
            "outputs": [],
            "stateMutability": "payable",
            "type": "function"
        },
        {
            "inputs": [
                {
                    "internalType": "uint256",
                    "name": "amountIn",
                    "type": "uint256"
                },
                {
                    "internalType": "address",
                    "name": "tokenIn",
                    "type": "address"
                }
            ],
            "name": "transferToContract",
            "outputs": [],
            "stateMutability": "payable",
            "type": "function"
        },
        {
            "inputs": [
                {
                    "internalType": "int256",
                    "name": "amount0Delta",
                    "type": "int256"
                },
                {
                    "internalType": "int256",
                    "name": "amount1Delta",
                    "type": "int256"
                },
                {
                    "internalType": "bytes",
                    "name": "_data",
                    "type": "bytes"
                }
            ],
            "name": "uniswapV3SwapCallback",
            "outputs": [],
            "stateMutability": "nonpayable",
            "type": "function"
        },
        {
            "inputs": [
                {
                    "internalType": "uint256",
                    "name": "amountMinimum",
                    "type": "uint256"
                },
                {
                    "internalType": "address",
                    "name": "recipient",
                    "type": "address"
                }
            ],
            "name": "unwrapWETH9",
            "outputs": [],
            "stateMutability": "payable",
            "type": "function"
        },
        {
            "stateMutability": "payable",
            "type": "receive"
        }
    ],
    "bytecode": "0x6101408060405234610113577328f1158795a3585caaa3cd6469cd65382b89bb708060805273acc15dc74880c9944775448304b263d191c6077f60a05260c0527fe34f199b19b2b4f47f68442619d555527d244f78a3297ea89325f843f87b8b5460e0526101009073ab8c35164a8e3ef302d18da953923ea31f0fe39382526101207f424896f6cdc5182412012e0779626543e1dc4b12e1c45ee5718ae92f10ad97f28152612a42928361011984396080518381816109a401528181611f8501526121c6015260a05183818161016c015281816107460152818161082401528181610a6d01528181611b890152612437015260c051836122ad015260e05183612203015251826120b001525181611fd80152f35b600080fdfe60806040526004361015610023575b361561001957600080fd5b610021610a6b565b005b60003560e01c806309ce4079146100df5780630cd5f2c6146100da57806312210e8a146100d557806317ee9b7a146100d05780632c8958f6146100ad57806349404b7c146100cb5780634aa4a4fc146100c65780636fe2e24f146100c157806371df30bf146100bc578063c45a0155146100b7578063df2ab5bb146100b25763fa461e330361000e575b6105ea565b6109d3565b61098e565b61088f565b61085e565b61080e565b610711565b6105c6565b6105a9565b610572565b60208060031936011261040d5767ffffffffffffffff60043581811161040d573660238201121561040d57806004013591821161040d576024810190602436918460051b01011161040d5761013a610135610cf2565b612879565b61014b34610146610d1d565b6128a7565b6080926101628461015c8585610d48565b01610d9d565b6001600160a01b037f000000000000000000000000000000000000000000000000000000000000000081169116811461033a575b50600090815b60ff81168581101561032f578061032a576101b78686610d48565b505b6101d56101cf6101ca838989610d7a565b610f47565b60ff1690565b6101e9575b506101e490610f31565b61019c565b9250856101f7848787610d7a565b0161020190610d9d565b60a08061020f868989610d7a565b0161021990610d9d565b610224868989610d7a565b6101200161023190610f51565b9161023d878a8a610d7a565b60c0013561024c888b8b610d7a565b6101400161025990610d9d565b90876102668a8d8d610d7a565b0161027090610d9d565b936102796104b7565b6001600160a01b0390971687526001600160a01b031686890152604094858701906102a8919062ffffff169052565b60608601526001600160a01b03168a8501526001600160a01b03909116908301526102d1610f5b565b6102da90612879565b6102e5858888610d7a565b016102ef90610f47565b6102f89161107b565b92610304908686610d7a565b60e00135831161031390610f88565b61031b610fe0565b61032490612879565b386101da565b6101b9565b604051848152602090f35b61035360c06103498686610d48565b0135610146610daa565b61036c60c06103628686610d48565b0135341015610dd5565b6103854760c061037c8787610d48565b01351115610e3f565b61038e34611b60565b6040516370a0823160e01b8152306004820152908290829060249082905afa8015610408576103d5916000916103db575b5060c06103cc8686610d48565b01351115610eb1565b38610196565b6103fb9150833d8511610401575b6103f38183610495565b810190610ace565b386103bf565b503d6103e9565b610add565b600080fd5b634e487b7160e01b600052604160045260246000fd5b60c0810190811067ffffffffffffffff82111761044457604052565b610412565b67ffffffffffffffff811161044457604052565b6040810190811067ffffffffffffffff82111761044457604052565b6060810190811067ffffffffffffffff82111761044457604052565b90601f8019910116810190811067ffffffffffffffff82111761044457604052565b604051906104c482610428565b565b604051906104c48261045d565b6001600160a01b0381160361040d57565b35906104c4826104d3565b62ffffff81160361040d57565b60c090600319011261040d576040519061051582610428565b81600435610522816104d3565b8152602435610530816104d3565b6020820152604435610541816104ef565b6040820152606435606082015260843561055a816104d3565b608082015260a060a4359161056e836104d3565b0152565b3461040d5760c036600319011261040d576020610596610591366104fc565b611294565b604051908152f35b600091031261040d57565b600036600319011261040d57476105bc57005b6100214733610c8b565b3461040d5760c036600319011261040d5760206105966105e5366104fc565b6113a5565b3461040d57606036600319011261040d5760443560243560043567ffffffffffffffff80841161040d573660238501121561040d57836004013590811161040d5783016024019236841161040d57610643610135612354565b610666600094602486851393848015610708575b6106609061238d565b01612394565b926106718451612763565b509190926000146106f257506001600160a01b03818116908316105b156106b35750602092909201516106b092906001600160a01b03165b339161242d565b80f35b90506106c3835160429051101590565b156106d85750506106d490516126c2565b5080f35b602092909201516106b092906001600160a01b03166106a9565b92506001600160a01b038281169082161061068d565b50878713610657565b604036600319011261040d57602435610729816104d3565b6040516370a0823160e01b81523060048201526001600160a01b037f00000000000000000000000000000000000000000000000000000000000000001691602082602481865afa918215610408576000926107ee575b5061078e600435831015610ae9565b8161079557005b823b1561040d57604051632e1a7d4d60e01b815260048101839052926000908490602490829084905af192831561040857610021936107d5575b50610c8b565b806107e26107e892610449565b8061059e565b386107cf565b61080791925060203d8111610401576103f38183610495565b903861077f565b3461040d57600036600319011261040d576040517f00000000000000000000000000000000000000000000000000000000000000006001600160a01b03168152602090f35b60ff81160361040d57565b3461040d5760e036600319011261040d57602061059661087d366104fc565b60c4359061088a82610853565b61107b565b604036600319011261040d576004356024356108aa816104d3565b6040516370a0823160e01b8152336004820152602092916001600160a01b0316908381602481855afa91821561040857836108f66000958795610926958891610971575b501015612600565b6040516323b872dd60e01b8152336004820152306024820152604481019190915293849283919082906064820190565b03925af19081156104085761002192600092610944575b505061264c565b6109639250803d1061096a575b61095b8183610495565b810190610bb7565b388061093d565b503d610951565b6109889150873d8911610401576103f38183610495565b386108ee565b3461040d57600036600319011261040d576040517f00000000000000000000000000000000000000000000000000000000000000006001600160a01b03168152602090f35b606036600319011261040d576004356109eb816104d3565b6044356109f7816104d3565b6040516370a0823160e01b8152306004820152906020826024816001600160a01b0387165afa91821561040857600092610a4b575b50610a3b602435831015610b2a565b81610a4257005b61002192610bcf565b610a6491925060203d8111610401576103f38183610495565b9038610a2c565b7f00000000000000000000000000000000000000000000000000000000000000006001600160a01b03163303610a9d57565b60405162461bcd60e51b81526020600482015260096024820152684e6f7420574554483960b81b6044820152606490fd5b9081602091031261040d575190565b6040513d6000823e3d90fd5b15610af057565b60405162461bcd60e51b8152602060048201526012602482015271496e73756666696369656e7420574554483960701b6044820152606490fd5b15610b3157565b60405162461bcd60e51b815260206004820152601260248201527124b739bab33334b1b4b2b73a103a37b5b2b760711b6044820152606490fd5b67ffffffffffffffff811161044457601f01601f191660200190565b3d15610bb2573d90610b9882610b6b565b91610ba66040519384610495565b82523d6000602084013e565b606090565b9081602091031261040d5751801515810361040d5790565b60405163a9059cbb60e01b602082019081526001600160a01b03909316602482015260448101939093526000928392908390610c1881606481015b03601f198101835282610495565b51925af1610c24610b87565b81610c5c575b5015610c3257565b60405162461bcd60e51b815260206004820152600260248201526114d560f21b6044820152606490fd5b8051801592508215610c71575b505038610c2a565b610c849250602080918301019101610bb7565b3880610c69565b604051602081019080821067ffffffffffffffff831117610444576000938493848094938194604052525af1610cbf610b87565b5015610cc757565b60405162461bcd60e51b815260206004820152600360248201526253544560e81b6044820152606490fd5b60405190610cff8261045d565b600f82526e457865637574696e6720537761707360881b6020830152565b60405190610d2a8261045d565b600f82526e023b636b9103932b1b2b4bb32b21d1608d1b6020830152565b9015610d645780359061017e198136030182121561040d570190565b634e487b7160e01b600052603260045260246000fd5b9190811015610d645760051b8101359061017e198136030182121561040d570190565b35610da7816104d3565b90565b60405190610db78261045d565b600f82526e023b636b9103932b8bab4b932b21d1608d1b6020830152565b15610ddc57565b60405162461bcd60e51b815260206004820152603560248201527f43616c6c657220646964206e6f742073656e6420656e6f75676820676c6d72206044820152741d1bc81b585d18da081a5b9c1d5d08185b5bdd5b9d605a1b6064820152608490fd5b15610e4657565b60405162461bcd60e51b815260206004820152603f60248201527f436f6e747261637420646f65736e2774206861766520656e6f75676820676c6d60448201527f7220746f207772617020746f206d6174636820696e70757420616d6f756e74006064820152608490fd5b15610eb857565b60405162461bcd60e51b815260206004820152603560248201527f416674657220777261707070696e672c2057474c4d52206973206c65737320746044820152741a185b881cddd85c081a5b9c1d5d08185b5bdd5b9d605a1b6064820152608490fd5b634e487b7160e01b600052601160045260246000fd5b60ff1660ff8114610f425760010190565b610f1b565b35610da781610853565b35610da7816104ef565b60405190610f688261045d565b60118252700457865637574696e67205633205377617607c1b6020830152565b15610f8f57565b60405162461bcd60e51b815260206004820152602360248201527f4f7574707574206973206c657373207468616e20657870656374656420616d6f6044820152621d5b9d60ea1b6064820152608490fd5b60405190610fed8261045d565b600f82526e14ddd85c081cdd58d8d95cdcd99d5b608a1b6020830152565b60005b83811061101e5750506000910152565b818101518382015260200161100e565b906110416020928281519485920161100b565b0190565b9060209161105e8151809281855285808601910161100b565b601f01601f1916010190565b906020610da7928181520190611045565b9060ff16600281036110915750610da790611294565b600381036110a35750610da7906113a5565b600090807a184f03e93ff9f4daa797ed6e38ed64bf6a1f010000000000000000818181101561122d575b50506d04ee2d6d415b85acef81000000008083101561121e575b50662386f26fc100008083101561120f575b506305f5e10080831015611200575b50612710808310156111f1575b5060648210156111e1575b600a809210156111d7575b60019081602161113c82870161123b565b95860101905b6111a1575b6040517f56332041424920696e64657820696e636f72726563743a200000000000000000602082015261119d9061118581610c0a603882018a61102e565b60405162461bcd60e51b81529182916004830161106a565b0390fd5b600019019083906f181899199a1a9b1b9c1cb0b131b232b360811b8282061a8353049182156111d257919082611142565b611147565b916001019161112b565b9190606460029104910191611120565b60049193920491019183611115565b60089193920491019183611108565b601091939204910191836110f9565b602091939204910191836110e7565b6040945004915083806110cd565b9061124582610b6b565b6112526040519182610495565b8281528092611263601f1991610b6b565b0190602036910137565b6040519061127a8261045d565b600b82526a02a37b5b2b71027baba1d160ad1b6020830152565b610da7906112cd60018060a01b038251166040516112b18161045d565b600a81526902a37b5b2b71024b71d160b51b602082015261292e565b6020810180519091906112f0906001600160a01b03166112eb61126d565b61292e565b6060810151608082015161138d906001600160a01b03169261137f61133c61132e6040611323855160018060a01b031690565b94015162ffffff1690565b96516001600160a01b031690565b604051968793602085019192602b936bffffffffffffffffffffffff19809360601b16845262ffffff60e81b9060e81b16601484015260601b1660178201520190565b03601f198101855284610495565b6113956104c6565b9283523360208401523390611867565b60608181015160808301518351604080860151602096870151825193871b6001600160601b0319908116858a015260e89290921b6001600160e81b031916603485015290951b9094166037820152602b81526001600160a01b039182169462ffffff949392601f19919061141a604b85610495565b8551936114268561045d565b8085528285019033825261143990612763565b9192848216858516109a885161144e90612763565b93516001600160a01b0316939291611464611667565b9061146e9161292e565b611476611690565b906114809161292e565b6114886116ba565b9116611493916128a7565b61149b6116e7565b906114a59161292e565b306114ae611712565b906114b89161292e565b6114c192611f10565b6114c961173f565b6114d290612879565b1691855194630dfe168160e01b8652828685815a91600492fa95861561040857600096611648575b50865163d21220a760e01b8152958387600481885afa928315610408576115959a611543600095611577948c9b8892611615575b5061153b906112eb61178d565b6112eb6117b2565b8015851461160f57508984146115f5576401000276a45b945b61156b895198899283016117d7565b03908101875286610495565b8551630251596160e31b8152988995869485938b336004870161181d565b03925af191821561040857610da79360009283946115c2575b5050156115bb5750611856565b9050611856565b80919294506115e69350903d106115ee575b6115de8183610495565b810190611807565b9138806115ae565b503d6115d4565b73fffd8963efd1fc6a506488495d951d5263988d2561155a565b9461155c565b61153b91925061163a908a3d8c11611641575b6116328183610495565b810190611778565b919061152e565b503d611628565b611660919650833d8511611641576116328183610495565b94386114fa565b604051906116748261045d565b600d82526c02a37b5b2b724b72a32b9ba1d1609d1b6020830152565b6040519061169d8261045d565b600e82526d02a37b5b2b727baba2a32b9ba1d160951b6020830152565b604051906116c78261045d565b601182527002a34b1b5a9b830b1b4b733aa32b9ba1d1607d1b6020830152565b604051906116f48261045d565b600f82526e02830bcb2b91020b2323932b9b99d1608d1b6020830152565b6040519061171f8261045d565b6011825270026b0b730b3b2b91020b2323932b9b99d1607d1b6020830152565b6040519061174c8261045d565b601982527f4372656174656420554e493320706f6f6c2061646472657373000000000000006020830152565b9081602091031261040d5751610da7816104d3565b6040519061179a8261045d565b600982526802a37b5b2b710181d160bd1b6020830152565b604051906117bf8261045d565b600982526802a37b5b2b710189d160bd1b6020830152565b6020815260406117f283518260208501526060840190611045565b6020909301516001600160a01b031691015290565b919082604091031261040d576020825192015190565b6001600160a01b039182168152911515602083015260408201929092529116606082015260a060808201819052610da792910190611045565b600160ff1b8114610f425760000390565b929092815161187590612763565b84516001600160a01b0380841681861610989397909693949092879261189a90612763565b602088810151909c9392906001600160a01b0316926118b7611667565b906118c19161292e565b6118c9611690565b906118d39161292e565b6118db6116ba565b9062ffffff166118ea916128a7565b6118f26116e7565b906118fc9161292e565b30611905611712565b9061190f9161292e565b6119189261216d565b61192061173f565b61192990612879565b1692604051630dfe168160e01b8152878186815a91600492fa90811561040857600091611a70575b5060405163d21220a760e01b8152938885600481895afa938415610408576040986119946000966119dc958e998e8a93611a4b575b505061153b906112eb61178d565b8116158514611a415750848414611a24576119c06401000276a45b995b610c0a8a5193849283016117d7565b8751630251596160e31b8152988997889687956004870161181d565b03925af190811561040857610da7926000918293611a01575b50156115bb5750611856565b909250611a1d915060403d6040116115ee576115de8183610495565b91386119f5565b6119c073fffd8963efd1fc6a506488495d951d5263988d256119af565b6119c090996119b1565b61153b9293509081611a6892903d10611641576116328183610495565b91908e611986565b611a879150883d8a11611641576116328183610495565b38611951565b60405190611a9a8261045d565b600d82526c2bb930b83834b7339023a626a960991b6020830152565b60405190611ac38261045d565b601682527503bb3b636b9103130b630b731b2903132b337b9329d160551b6020830152565b60405190611af58261045d565b601582527403bb3b636b9103130b630b731b29030b33a32b91d1605d1b6020830152565b91908203918211610f4257565b15611b2d57565b60405162461bcd60e51b815260206004820152600b60248201526a15dc985c0811905253115160aa1b6044820152606490fd5b611b6b610135611a8d565b6040516370a0823160e01b8082523060048301526001600160a01b037f00000000000000000000000000000000000000000000000000000000000000001692916020918282602481885afa91821561040857600092611c76575b50611bd282610146611ab6565b843b1561040d57604051630d0e30db60e41b815290600082600481888a5af1918215610408578492611c63575b5060405190815230600482015294859060249082905afa8015610408576104c494611c3f93600092611c46575b5050611c3a81610146611ae8565b611b19565b1015611b26565b611c5c9250803d10610401576103f38183610495565b3880611c2c565b806107e2611c7092610449565b38611bff565b611c8e919250833d8511610401576103f38183610495565b9038611bc5565b60405190611ca28261045d565b601282527103837b7b61035b2bc903a37b5b2b710181d160751b6020830152565b60405190611cd08261045d565b601282527103837b7b61035b2bc903a37b5b2b710189d160751b6020830152565b60405190611cfe8261045d565b600e82526d03837b7b61035b2bc903332b29d160951b6020830152565b60405190611d288261045d565b600982526802330b1ba37b93c9d160bd1b6020830152565b60405190611d4d8261045d565b600182526001600160f81b03196020830152565b60405190611d6e8261045d565b600e82526d02432bc103333103b30b63ab29d160951b6020830152565b60405190611d988261045d565b6009825268092dcd2e840d0c2e6d60bb1b6020830152565b60405190611dbd8261045d565b600a8252695061636b6564204f6e6560b01b6020830152565b60405190611de38261045d565b600d82526c0a0deded84096caf24090c2e6d609b1b6020830152565b60405190611e0c8261045d565b600a8252695061636b65642054776f60b01b6020830152565b60405190611e328261045d565b60118252700a0deded84082c8c8e4cae6e640d0c2e6d607b1b6020830152565b60405190611e5f8261045d565b601682527502837b7b61020b2323932b9b9902ab4b73a191a9b1d160551b6020830152565b60405190611e918261045d565b601682527502837b7b61020b2323932b9b9902ab4b73a189b181d160551b6020830152565b60405190611ec38261045d565b600e82526d02837b7b61020b2323932b9b99d160951b6020830152565b60405190611eed8261045d565b601482527302837b7b61020b2323932b9b9902334b730b61d160651b6020830152565b90611f1b92916122f8565b8051611f33906001600160a01b03165b6112eb611c95565b6020810180516120fb9161210791611f57906001600160a01b03165b6112eb611cc3565b6040840190611f80611f6c835162ffffff1690565b62ffffff611f78611cf1565b9116906128a7565b611fac7f00000000000000000000000000000000000000000000000000000000000000006112eb611d1b565b611fcd611fb7611d40565b611fc881611fc3611d61565b6128ea565b612809565b6120316120276120197f000000000000000000000000000000000000000000000000000000000000000097612003610135611d8b565b61200c89612852565b516001600160a01b031690565b92516001600160a01b031690565b925162ffffff1690565b604080516001600160a01b0393841660208201908152949093169083015262ffffff166060808301919091528152601f19919061206f608082610495565b61207a610135611db0565b61208381612809565b51902093612092610135611dd6565b61209b85612852565b6040516001600160f81b0319602082019081527f000000000000000000000000000000000000000000000000000000000000000060601b6001600160601b0319166021830152603582019690965260558101919091529283906075820190565b03908101835282610495565b612112610135611dff565b61211b81612809565b519020612129610135611e25565b61213281612852565b6001600160a01b0381169061214990610146611e52565b61215581610146611e84565b612161816112eb611eb6565b610da7816112eb611ee0565b9061217892916122f8565b805161218c906001600160a01b0316611f2b565b6020810180516120fb91612107916121ac906001600160a01b0316611f4f565b60408401906121c1611f6c835162ffffff1690565b6121ed7f00000000000000000000000000000000000000000000000000000000000000006112eb611d1b565b6121f8611fb7611d40565b61222e6120276120197f000000000000000000000000000000000000000000000000000000000000000097612003610135611d8b565b604080516001600160a01b0393841660208201908152949093169083015262ffffff166060808301919091528152601f19919061226c608082610495565b612277610135611db0565b61228081612809565b5190209361228f610135611dd6565b61229885612852565b6040516001600160f81b0319602082019081527f000000000000000000000000000000000000000000000000000000000000000060601b6001600160601b0319166021830152603582019690965260558101919091529283906075820190565b9162ffffff9160006040805161230d81610479565b8281526020810183905201526001600160a01b03908082168583161161234e575b816040519561233c87610479565b16855216602084015216604082015290565b9361232e565b604051906123618261045d565b601b82527f52656365697665642063616c6c6261636b2066726f6d20706f6f6c00000000006020830152565b1561040d57565b90602090818382031261040d57823567ffffffffffffffff9384821161040d570160408183031261040d57604051936123cc8561045d565b813590811161040d5781019082601f8301121561040d578135926123ef84610b6b565b906123fd6040519283610495565b84825285858501011161040d5760008585612426968280970183860137830101528552016104e4565b9082015290565b6001600160a01b037f00000000000000000000000000000000000000000000000000000000000000008116949290828116861480612539575b1561251757505050823b1561040d57604051630d0e30db60e41b81529260008460048185855af1928315610408576124d994602094612504575b5060405163a9059cbb60e01b81526001600160a01b03909116600482015260248101929092529092839190829060009082906044820190565b03925af18015610408576124ea5750565b6125019060203d811161096a5761095b8183610495565b50565b806107e261251192610449565b386124a0565b919450919291908116300361253057506104c492610bcf565b6104c493612543565b5083471015612466565b6040516323b872dd60e01b602082019081526001600160a01b039384166024830152939092166044830152606482019390935260009283929091839061258c8160848101610c0a565b51925af1612598610b87565b816125d1575b50156125a657565b60405162461bcd60e51b815260206004820152600360248201526229aa2360e91b6044820152606490fd5b80518015925082156125e6575b50503861259e565b6125f99250602080918301019101610bb7565b38806125de565b1561260757565b60405162461bcd60e51b815260206004820152601d60248201527f57616c6c65742068617320696e73756666696369656e742066756e64730000006044820152606490fd5b1561265357565b60405162461bcd60e51b815260206004820152602560248201527f556e61626c6520746f207472616e7366657220746f6b656e7320746f20636f6e6044820152641d1c9858dd60da1b6064820152608490fd5b90601f8201809211610f4257565b6017019081601711610f4257565b80516016199182820190828211610f42576126e7826126e0816126a6565b101561297c565b6126fc81516126f5846126b4565b11156129b9565b601783036127195750505050604051600081526020810160405290565b601760405194601f8416801560051b9182828901019687010193010101905b8084106127505750508252601f01601f191660405290565b9092835181526020809101930190612738565b9060148251106127cc57602082015160601c9160178151106127905761278d6017820151916129f9565b91565b60405162461bcd60e51b8152602060048201526014602482015273746f55696e7432345f6f75744f66426f756e647360601b6044820152606490fd5b60405162461bcd60e51b8152602060048201526015602482015274746f416464726573735f6f75744f66426f756e647360581b6044820152606490fd5b610c0a6128376104c4926040519283916305f3bfab60e11b6020840152602060248401526044830190611045565b600080916020815191016a636f6e736f6c652e6c6f675afa50565b6104c490604051906327b7cf8560e01b602083015260248201526024815261283781610479565b610c0a6128376104c49260405192839163104c13eb60e21b6020840152602060248401526044830190611045565b6128376128d6916104c493604051938492632d839cb360e21b6020850152604060248501526064840190611045565b90604483015203601f198101835282610495565b61283761291c91610c0a6104c494604051948593634b5c427760e01b6020860152604060248601526064850190611045565b83810360231901604485015290611045565b61283761295d916104c49360405193849263319af33360e01b6020850152604060248501526064840190611045565b6001600160a01b0391909116604483015203601f198101835282610495565b1561298357565b60405162461bcd60e51b815260206004820152600e60248201526d736c6963655f6f766572666c6f7760901b6044820152606490fd5b156129c057565b60405162461bcd60e51b8152602060048201526011602482015270736c6963655f6f75744f66426f756e647360781b6044820152606490fd5b602b8151106127cc576037015160601c9056fea2646970667358221220697dbcaa6c2b055f748fb1e91666a80d166d6ffcad533380aba6dce6912b612464736f6c63430008140033",
    "linkReferences": {},
    "deployedLinkReferences": {}
}