{
  "_format": "hh-sol-artifact-1",
  "contractName": "Batch",
  "sourceName": "contracts/Batch.sol",
  "abi": [
    {
      "inputs": [
        {
          "internalType": "address[]",
          "name": "dexAddresses",
          "type": "address[]"
        },
        {
          "internalType": "uint256[]",
          "name": "abiIndex",
          "type": "uint256[]"
        },
        {
          "internalType": "address[]",
          "name": "inputTokens",
          "type": "address[]"
        },
        {
          "internalType": "address[]",
          "name": "outputTokens",
          "type": "address[]"
        },
        {
          "internalType": "uint256[]",
          "name": "amounts0In",
          "type": "uint256[]"
        },
        {
          "internalType": "uint256[]",
          "name": "amounts1In",
          "type": "uint256[]"
        },
        {
          "internalType": "uint256[]",
          "name": "amounts0Out",
          "type": "uint256[]"
        },
        {
          "internalType": "uint256[]",
          "name": "amounts1Out",
          "type": "uint256[]"
        },
        {
          "internalType": "uint256[]",
          "name": "movrWrapAmount",
          "type": "uint256[]"
        },
        {
          "internalType": "bytes[]",
          "name": "data",
          "type": "bytes[]"
        }
      ],
      "name": "executeSwaps",
      "outputs": [],
      "stateMutability": "payable",
      "type": "function"
    },
    {
      "inputs": [],
      "name": "testCall",
      "outputs": [],
      "stateMutability": "pure",
      "type": "function"
    },
    {
      "inputs": [],
      "name": "testData",
      "outputs": [
        {
          "internalType": "uint256",
          "name": "",
          "type": "uint256"
        }
      ],
      "stateMutability": "view",
      "type": "function"
    },
    {
      "inputs": [
        {
          "internalType": "address",
          "name": "inputToken",
          "type": "address"
        },
        {
          "internalType": "address",
          "name": "outputToken",
          "type": "address"
        },
        {
          "internalType": "address",
          "name": "dex",
          "type": "address"
        },
        {
          "internalType": "uint256",
          "name": "amountIn",
          "type": "uint256"
        },
        {
          "internalType": "uint256",
          "name": "expectedAmount",
          "type": "uint256"
        },
        {
          "internalType": "uint256",
          "name": "amount0Out",
          "type": "uint256"
        },
        {
          "internalType": "uint256",
          "name": "amount1Out",
          "type": "uint256"
        },
        {
          "internalType": "address",
          "name": "to",
          "type": "address"
        },
        {
          "internalType": "bytes",
          "name": "data",
          "type": "bytes"
        }
      ],
      "name": "transferAndSwapHigh",
      "outputs": [],
      "stateMutability": "nonpayable",
      "type": "function"
    },
    {
      "inputs": [],
      "name": "wmovr",
      "outputs": [
        {
          "internalType": "contract IWMOVR",
          "name": "",
          "type": "address"
        }
      ],
      "stateMutability": "view",
      "type": "function"
    },
    {
      "inputs": [
        {
          "internalType": "address",
          "name": "inputToken",
          "type": "address"
        },
        {
          "internalType": "address",
          "name": "outputToken",
          "type": "address"
        },
        {
          "internalType": "address",
          "name": "dex",
          "type": "address"
        },
        {
          "internalType": "uint256",
          "name": "amountIn",
          "type": "uint256"
        },
        {
          "internalType": "uint256",
          "name": "expectedAmount",
          "type": "uint256"
        },
        {
          "internalType": "uint256",
          "name": "amount0Out",
          "type": "uint256"
        },
        {
          "internalType": "uint256",
          "name": "amount1Out",
          "type": "uint256"
        },
        {
          "internalType": "address",
          "name": "to",
          "type": "address"
        }
      ],
      "name": "zenlinkTransferAndSwap",
      "outputs": [],
      "stateMutability": "nonpayable",
      "type": "function"
    },
    {
      "stateMutability": "payable",
      "type": "receive"
    }
  ],
  "bytecode": "0x6080806040523461004a5760646000557398878b06940ae243284ca214f92bb71a2b032b8a60018060a01b03198181600154161760015560025416176002556123c290816100508239f35b600080fdfe60e080604052600436101561001d575b50361561001b57600080fd5b005b600060a05260003560e01c908163016cbd5114611cfe57508063281a127114611aa95780638f560d16146104d3578063b7f058361461049b578063ee6e978c146100a55763fa0c6fb514610071573861000f565b3461009f5760a0518060031936011261009c576002546040516001600160a01b039091168152602090f35b80fd5b60a05180fd5b3461009f5761012036600319011261009f576100bf611d19565b6100c7611d2f565b906100d0611d45565b91606435906100dd611d5b565b610104356001600160401b03811161009f576100fd903690600401611ed4565b916040519561010b87611d9a565b600f87526101316020976e08ab08a86aaa8929c8e408482a8869608b1b898201526122a8565b60405163161765e160e11b8882019081526001600160a01b0383811660248085018290528452989092839260009182919061016b81611db5565b51906a636f6e736f6c652e6c6f675afa50604051636eb1769f60e11b815233600482015230602482015294909216969116928881604481875afa801561030a5760a051839161046a575b6101c1925010156121c7565b6040516323b872dd60e01b81523360048201526001600160a01b0383166024820152604481018290529288848060648101038160a051855af192831561030a576102198a9461024e9660a0519161044d575b50612225565b60405163095ea7b360e01b81526001600160a01b03909116600482015260248101929092529092839190829081906044820190565b039160a051905af1801561030a5761026f9160a05191610420575b5061226a565b604051936370a0823160e01b918286523360048701528686602481885afa95861561030a5760a051966103f1575b50813b1561009f5786936102d092604051808095819463022c0d9f60e01b835260a0519660c43560a4356004860161215e565b039160a051905af190816103d4575b5061035957505050506001906102f361208f565b6308c379a014610317575b5061030a575b60a05180f35b6040513d60a051823e3d90fd5b61031f6120ad565b908161032b57506102fe565b610334826122a8565b61035560405192839262461bcd60e51b84526004840152602483019061211e565b0390fd5b60246040518094819382523360048301525afa92831561030a5760a0519361039b575b50509061038f6103969260843592611faa565b1015612035565b610304565b90809350813d83116103cd575b6103b28183611dd0565b810103126103c85761038f61039692519261037c565b600080fd5b503d6103a8565b6103e091929350611d71565b60a0518061009c57908592916102df565b9095508681813d8311610419575b6104098183611dd0565b810103126103c85751948761029d565b503d6103ff565b6104409150873d8911610446575b6104388183611dd0565b810190611fb7565b87610269565b503d61042e565b6104649150863d8811610446576104388183611dd0565b8c610213565b50508881813d8311610494575b6104818183611dd0565b810103126103c857816101c191516101b5565b503d610477565b3461009f5760a0518060031936011261009c576103046040516104bd81611d9a565b6004815263151154d560e21b60208201526122a8565b61014036600319011261009f576004356001600160401b03811161009f576104ff903690600401611e08565b6024356001600160401b03811161009f5761051e903690600401611e76565b6044356001600160401b03811161009f5761053d903690600401611e08565b906064356001600160401b03811161009f5761055d903690600401611e08565b6084356001600160401b03811161009f5761057c903690600401611e76565b9360a4356001600160401b03811161009f5761059c903690600401611e76565b9260c4356001600160401b03811161009f576105bc903690600401611e76565b9460e4356001600160401b03811161009f576105dc903690600401611e76565b96610104356001600160401b03811161009f576105fd903690600401611e76565b6080526001600160401b03610124351161009f573660236101243501121561009f5761012435600401359661063188611df1565b9761063f604051998a611dd0565b80895260208901903660248260051b6101243501011161009f5760246101243501915b60248260051b6101243501018310611a75575050506106a760405161068681611d9a565b600f81526e457865637574696e6720537761707360881b60208201526122a8565b60a05198895b86518b10156106f4576106c28b608051611f4f565b5181018091116106dc576106d6909a611f2a565b996106ad565b634e487b7160e01b60a051526011600452602460a051fd5b89903410611a395760a0518060c0525b8751811015610304576107358160405161071d81611d9a565b600681526553776170202360d01b60208201526122f7565b61074181608051611f4f565b516116c3575b6001600160a01b036107598288611f4f565b51166001600160a01b0361076d838c611f4f565b51169061077a8388611f4f565b516116b357610789838d611f4f565b515b6107958488611f4f565b516116a2576107a48487611f4f565b51915b6040516370a0823160e01b8152336004820152602081602481855afa801561030a5760a0519061166e575b61081291506040516107e381611d9a565b601a81527f546f6b656e20696e20696e697469616c2062616c616e63653a2000000000000060208201526122f7565b604051636eb1769f60e11b8152336004820152306024820152602081604481855afa90811561030a5760a0519161163c575b508281106115c5576020838f8f9061097f948f91610899610904936108708e60018060a01b0392611f4f565b511660405161087e81611d9a565b600a81526902a37b5b2b71034b71d160b51b8982015261233c565b6001600160a01b03906108ad908d90611f4f565b51166108dd604051916108bf83611d9a565b600b928381526a02a37b5b2b71037baba1d160ad1b8982015261233c565b604051906108ea82611d9a565b81526a020b63637bbb0b731b29d160ad1b868201526122f7565b6109338260405161091481611d9a565b600e81526d024b7383aba1030b6b7bab73a1d160951b868201526122f7565b6001600160a01b0390610947908a90611f4f565b516040516323b872dd60e01b815233600482015291166001600160a01b03166024820152604481019190915291829081906064820190565b038160a051865af190811561030a5760a051916115a6575b5015611568576109e9916020918d6109b68860018060a01b0392611f4f565b511660405180958194829363095ea7b360e01b84526004840160209093929193604081019460018060a01b031681520152565b039160a051905af190811561030a5760a05191611549575b501561150c576040516370a0823160e01b815233600482015291602083602481845afa92831561030a5760a051936114d8575b50610a3f848b611f4f565b5161139f57604051610a5081611d9a565b610a7a6013918281527229bbb0b83834b733903bb4ba341039b7b630b960691b60208201526122a8565b610b306001600160a01b03610a8f878f611f4f565b5116610ac260405191610aa183611d9a565b600d928381526c02232bc1020b2323932b9b99d1609d1b602082015261233c565b610afa610acf888c611f4f565b51604051610adc81611d9a565b8381526c030b6b7bab73a399827baba1d1609d1b60208201526122f7565b610b04878a611f4f565b519060405190610b1382611d9a565b81526c030b6b7bab73a3998a7baba1d1609d1b60208201526122f7565b610b5f604051610b3f81611d9a565b600c81526b036b9b39039b2b73232b91d160a51b6020820152339061233c565b6001600160a01b03610b71868e611f4f565b5116610b7d868a611f4f565b5190610b89878a611f4f565b5190610b95888a611f4f565b5190803b1561009f57610bc49360405180958194829363022c0d9f60e01b845260a0519733916004860161215e565b039160a051905af1908161138a575b506112b757505050506001610be661208f565b6308c379a014611297575b61030a575b610c42604051610c0581611db5565b602581527f2d2d2d2d2d2d2d2d2d2d2d2d2d2d2d2d2d2d2d2d2d2d2d2d2d2d2d2d2d2d2d2d6020820152642d2d2d2d2d60d81b60408201526122a8565b8751806000198101116106dc576000190181148061126f575b610c6e575b610c6990611f2a565b610704565b610ca0604051610c7d81611d9a565b60118152702732b2b2103a37903ab73bb930b817171760791b60208201526122a8565b610cd9604051610caf81611d9a565b601481527302a3930b739b332b93934b733902ba6a7ab291d160651b602082015260c051906122f7565b600254604051636eb1769f60e11b81523360048201523060248201526001600160a01b0390911690602081604481855afa90811561030a5760a0519161123d575b50610d6581604051610d2b81611db5565b602281527f426174636820636f6e747261637420617070726f76656420746f207370656e6460208201526101d160f51b60408201526122f7565b610d9b604051610d7481611d9a565b601181527002a393cb4b733903a379039b832b7321d1607d1b602082015260c051906122f7565b60c051116111f8576040516323b872dd60e01b815260c051336004830152306024830152604482015260a0519091602091839160649183915af1801561030a57610dee9160a051916111d9575b50612189565b610e41604051610dfd81611db5565b602c81527f535543434553533a205472616e7366657272656420574d4f565220746f20626160208201526b1d18da0818dbdb9d1c9858dd60a21b60408201526122a8565b610e90604051610e5081611db5565b602881527f457865637574696e6720756e77726170416e645472616e736665724d4f565220602082015267333ab731ba34b7b760c11b60408201526122a8565b610ec4604051610e9f81611d9a565b60138152722ab73bb930b81030b732103a3930b739b332b960691b60208201526122a8565b6002546040516370a0823160e01b815230600482015260a0519091602091839160249183916001600160a01b03165af190811561030a5760a051916111a7575b50610f4481604051610f1581611d9a565b601881527f436f6e747261637420574d4f56522042616c616e63653a20000000000000000060208201526122f7565b60c0511161115457610fb0604051610f5b81611db5565b603881527f496e6974696174696e6720756e77726170416e645472616e736665724d4f565260208201527f3a20776d6f76722e776974686472617728616d6f756e7429000000000000000060408201526122a8565b6002546001600160a01b0316803b1561009f5760405190632e1a7d4d60e01b825260c05160048301528160248160a05180945af1908161113f575b50611106576001610ffa61208f565b6308c379a01461108e575b61030a575b61105e60405161101981611db5565b602d81527f556e7772617020737563636573732e205472616e73666572206261636b20746f60208201526c103932b1b4b834b2b73a17171760991b60408201526122a8565b60a051808080809360c051908115611085575b3390f1610c60576040513d60a051823e3d90fd5b506108fc611071565b6110966120ad565b806110a15750611005565b60405161035591906110dd906110b681611d9a565b601581527415da5d1a191c985dc81d5b9cdd58d8d95cdcd99d5b605a1b60208201526122a8565b6110e6816122a8565b60405162461bcd60e51b815260206004820152918291602483019061211e565b61113a60405161111581611d9a565b601381527215da5d1a191c985dc814dd58d8d95cdcd99d5b606a1b60208201526122a8565b61100a565b61114890611d71565b60a0518015610feb5780fd5b60405162461bcd60e51b815260206004820152602560248201527f496e73756666696369656e7420574d4f56522062616c616e636520666f72207560448201526406e777261760dc1b6064820152608490fd5b90506020813d6020116111d1575b816111c260209383611dd0565b810103126103c857518b610f04565b3d91506111b5565b6111f2915060203d602011610446576104388183611dd0565b8c610de8565b60405162461bcd60e51b815260206004820152601960248201527f416c6c6f77616e6365206e6f74206869676820656e6f756768000000000000006044820152606490fd5b90506020813d602011611267575b8161125860209383611dd0565b810103126103c857518c610d1a565b3d915061124b565b506001600160a01b03611282828b611f4f565b516001546001600160a01b0316911614610c5b565b61129f6120ad565b806112aa5750610bf1565b610355906110e6816122a8565b6024916112ef602092604051906112cd82611d9a565b81527214dbdb185c8814ddd85c08195e1958dd5d1959606a1b848201526122a8565b6040516370a0823160e01b815233600482015292839182905afa90811561030a5760a05191611356575b508061133f61132e6113519561134794611faa565b8060c05261133a611fcf565b6122f7565b61133a611ffc565b60c0511015612035565b610bf6565b90506020813d602011611382575b8161137160209383611dd0565b810103126103c85751611351611319565b3d9150611364565b61139390611d71565b60a0518015610bd35780fd5b6040516113ab81611d9a565b6113d7601591828152745377617070696e672077697468205a656e6c696e6b60581b60208201526122a8565b6001600160a01b036113e9868e611f4f565b51166113f5868a611f4f565b51611400878a611f4f565b5190823b1561009f576040516336cd320560e11b815260a0805160048301939093526024820193909352336044820152915191929091839160649183915af190816114c3575b506114895750505050600161145961208f565b6308c379a014611476575b15610bf6576040513d60a051823e3d90fd5b61147e6120ad565b806112aa5750611464565b6024916112ef6020926040519061149f82611d9a565b81527416995b9b1a5b9ac814ddd85c08195e1958dd5d1959605a1b848201526122a8565b6114cc90611d71565b60a05180156114465780fd5b9092506020813d602011611504575b816114f460209383611dd0565b810103126103c85751918d610a34565b3d91506114e7565b60405162461bcd60e51b8152602060048201526015602482015274151bdad95b88185c1c1c9bdd985b08119052531151605a1b6044820152606490fd5b611562915060203d602011610446576104388183611dd0565b8d610a01565b60405162461bcd60e51b8152602060048201526016602482015275151c985b9cd9995c881d1bc819195e0811905253115160521b6044820152606490fd5b6115bf915060203d602011610446576104388183611dd0565b8f610997565b60a460405162461bcd60e51b815260206004820152604460248201527f426174636820636f6e7472616374206e6f7420617070726f76656420746f207360448201527f70656e6420696e70757420746f6b656e20666f722063616c6c696e67206164646064820152637265737360e01b6084820152fd5b90506020813d602011611666575b8161165760209383611dd0565b810103126103c857518f610844565b3d915061164a565b506020813d60201161169a575b8161168860209383611dd0565b810103126103c85761081290516107d2565b3d915061167b565b6116ac8488611f4f565b51916107a7565b6116bd8388611f4f565b5161078b565b6116f16040516116d281611d9a565b600d81526c2bb930b83834b7339036b7bb3960991b60208201526122a8565b6002546040516370a0823160e01b815233600482015260a0519091602091839160249183916001600160a01b03165af190811561030a5760a05191611a07575b506117718160405161174281611d9a565b601781527f776d6f76722062616c616e636520696e697469616c3a2000000000000000000060208201526122f7565b6117a360405161178081611d9a565b60118152702bb930b81030b732103a3930b739b332b960791b60208201526122a8565b6002546001600160a01b0316803b1561009f5760405190630d0e30db60e41b82528160048160a0519334905af1801561030a576119f2575b506002546040516370a0823160e01b815230600482015260a051909291602091849160249183916001600160a01b03165af191821561030a5760a051926119bd575b506020826118306118679461133a611f79565b60025460405163a9059cbb60e01b81523360048201526024810192909252909384916001600160a01b031690829081906044820190565b039160a051905af191821561030a5760249261188b9160a0519161199e5750612189565b6002546040516370a0823160e01b815233600482015260a0519093602092859283916001600160a01b03165af1801561030a5760a0519061196a575b6118dd92506118d88161133a611f79565b611faa565b611913816040516118ed81611d9a565b601481527302732bbb63c903bb930b83832b21036b7bb391d160651b60208201526122f7565b61191f82608051611f4f565b51146107475760405162461bcd60e51b815260206004820152601c60248201527f57726170706564206d6f767220616d6f756e74206d69736d61746368000000006044820152606490fd5b506020823d602011611996575b8161198460209383611dd0565b810103126103c8576118dd91516118c7565b3d9150611977565b6119b7915060203d602011610446576104388183611dd0565b8e610de8565b91506020823d6020116119ea575b816119d860209383611dd0565b810103126103c857905190602061181d565b3d91506119cb565b6119fb90611d71565b60a05180156117db5780fd5b90506020813d602011611a31575b81611a2260209383611dd0565b810103126103c857518b611731565b3d9150611a15565b60405162461bcd60e51b8152602060048201526014602482015273139bdd08195b9bdd59da081353d594881cd95b9d60621b6044820152606490fd5b6001600160401b0383351161009f57602080602492611a9c36858835610124350101611ed4565b8152019301929050610662565b3461009f5761010036600319011261009f57611ac3611d19565b611acb611d2f565b90611ad4611d45565b60643590611ae0611d5b565b604051636eb1769f60e11b81523360048201523060248201526020956001600160a01b03959086169492939291908616908781604481855afa801561030a5760a0518491611ccd575b611b35925010156121c7565b6040516323b872dd60e01b81523360048201526001600160a01b0384166024820152604481018390529187838060648101038160a051865af191821561030a57611b8c8993611bc09560a05191611cb05750612225565b60405163095ea7b360e01b81526001600160a01b038616600482015260248101929092529092839190829081906044820190565b039160a051905af1801561030a57611be09160a05191610420575061226a565b604051936370a0823160e01b918286523360048701528686602481885afa95861561030a5760a05196611c81575b5016803b1561009f576040516336cd320560e11b815260a0805160a435600484015260c43560248401526001600160a01b03959095166044830152518794919283916064918391905af19081611c72575061035957505050506001906102f361208f565b611c7b90611d71565b866102df565b9095508681813d8311611ca9575b611c998183611dd0565b8101031261009f57519487611c0e565b503d611c8f565b611cc79150853d8711610446576104388183611dd0565b8b610213565b50508781813d8311611cf7575b611ce48183611dd0565b8101031261009f5782611b359151611b29565b503d611cda565b346103c85760003660031901126103c8576020906000548152f35b600435906001600160a01b03821682036103c857565b602435906001600160a01b03821682036103c857565b604435906001600160a01b03821682036103c857565b60e435906001600160a01b03821682036103c857565b6001600160401b038111611d8457604052565b634e487b7160e01b600052604160045260246000fd5b604081019081106001600160401b03821117611d8457604052565b606081019081106001600160401b03821117611d8457604052565b90601f801991011681019081106001600160401b03821117611d8457604052565b6001600160401b038111611d845760051b60200190565b81601f820112156103c857803591611e1f83611df1565b92611e2d6040519485611dd0565b808452602092838086019260051b8201019283116103c8578301905b828210611e57575050505090565b81356001600160a01b03811681036103c8578152908301908301611e49565b81601f820112156103c857803591611e8d83611df1565b92611e9b6040519485611dd0565b808452602092838086019260051b8201019283116103c8578301905b828210611ec5575050505090565b81358152908301908301611eb7565b81601f820112156103c8578035906001600160401b038211611d845760405192611f08601f8401601f191660200185611dd0565b828452602083830101116103c857816000926020809301838601378301015290565b6000198114611f395760010190565b634e487b7160e01b600052601160045260246000fd5b8051821015611f635760209160051b010190565b634e487b7160e01b600052603260045260246000fd5b60405190611f8682611d9a565b601582527403bb6b7bb39103130b630b731b29030b33a32b91d1605d1b6020830152565b91908203918211611f3957565b908160209103126103c8575180151581036103c85790565b60405190611fdc82611d9a565b601182527002932b1b2b4bb32b21020b6b7bab73a1d1607d1b6020830152565b6040519061200982611d9a565b601982527f546f6b656e206f75742066696e616c2062616c616e63653a20000000000000006020830152565b1561203c57565b60405162461bcd60e51b815260206004820152602560248201527f526563656976656420616d6f756e74206973206c657373207468616e206578706044820152641958dd195960da1b6064820152608490fd5b60009060033d1161209c57565b905060046000803e60005160e01c90565b600060443d1061210a57604051600319913d83016004833e81516001600160401b03918282113d60248401111761210d57818401948551938411612115573d8501016020848701011161210d575061210a92910160200190611dd0565b90565b949350505050565b50949350505050565b919082519283825260005b84811061214a575050826000602080949584010152601f8019910116010190565b602081830181015184830182015201612129565b909260809261210a95948352602083015260018060a01b03166040820152816060820152019061211e565b1561219057565b60405162461bcd60e51b815260206004820152600f60248201526e151c985b9cd9995c8819985a5b1959608a1b6044820152606490fd5b156121ce57565b60405162461bcd60e51b815260206004820152602960248201527f426174636820636f6e7472616374206e6f7420617070726f76656420746f2075604482015268736520746f6b656e7360b81b6064820152608490fd5b1561222c57565b60405162461bcd60e51b8152602060048201526016602482015275151c985b9cd9995c881d1bc81111560819985a5b195960521b6044820152606490fd5b1561227157565b60405162461bcd60e51b815260206004820152600f60248201526e105c1c1c9bdd985b0819985a5b1959608a1b6044820152606490fd5b600080916040516122e4816122d6602082019463104c13eb60e21b865260206024840152604483019061211e565b03601f198101835282611dd0565b51906a636f6e736f6c652e6c6f675afa50565b6000919082916122e460405180926123286020830195632d839cb360e21b875260406024850152606484019061211e565b90604483015203601f198101835282611dd0565b6000919082916122e4604051809261236d602083019563319af33360e01b875260406024850152606484019061211e565b6001600160a01b0391909116604483015203601f198101835282611dd056fea2646970667358221220829d1f9bd0e1b50a7e3a6d15a144f9b99062efd5eda860d24351d50852374b2964736f6c63430008130033",
  "linkReferences": {},
  "deployedLinkReferences": {}
}