{
  "_format": "hh-sol-artifact-1",
  "contractName": "Batch",
  "sourceName": "contracts/Batch.sol",
  "abi": [
    {
      "inputs": [
        {
          "internalType": "address[]",
          "name": "dexes",
          "type": "address[]"
        },
        {
          "internalType": "bytes[]",
          "name": "calls",
          "type": "bytes[]"
        }
      ],
      "name": "batchSwap",
      "outputs": [],
      "stateMutability": "nonpayable",
      "type": "function"
    },
    {
      "inputs": [
        {
          "internalType": "address[]",
          "name": "tokens",
          "type": "address[]"
        },
        {
          "internalType": "address[]",
          "name": "to",
          "type": "address[]"
        },
        {
          "internalType": "uint256[]",
          "name": "amounts",
          "type": "uint256[]"
        }
      ],
      "name": "batchTransfer",
      "outputs": [],
      "stateMutability": "nonpayable",
      "type": "function"
    },
    {
      "inputs": [
        {
          "internalType": "address[]",
          "name": "tokens",
          "type": "address[]"
        },
        {
          "internalType": "address[]",
          "name": "dexes",
          "type": "address[]"
        },
        {
          "internalType": "uint256[]",
          "name": "amounts",
          "type": "uint256[]"
        },
        {
          "internalType": "bytes[]",
          "name": "swapCalls",
          "type": "bytes[]"
        }
      ],
      "name": "batchTransferAndSwap",
      "outputs": [],
      "stateMutability": "nonpayable",
      "type": "function"
    },
    {
      "inputs": [],
      "name": "data",
      "outputs": [
        {
          "internalType": "uint256",
          "name": "",
          "type": "uint256"
        }
      ],
      "stateMutability": "view",
      "type": "function"
    },
    {
      "inputs": [
        {
          "internalType": "address",
          "name": "token",
          "type": "address"
        },
        {
          "internalType": "address",
          "name": "owner",
          "type": "address"
        }
      ],
      "name": "getAllowance",
      "outputs": [
        {
          "internalType": "uint256",
          "name": "",
          "type": "uint256"
        }
      ],
      "stateMutability": "view",
      "type": "function"
    },
    {
      "inputs": [
        {
          "internalType": "address",
          "name": "inputToken",
          "type": "address"
        },
        {
          "internalType": "address",
          "name": "outputToken",
          "type": "address"
        },
        {
          "internalType": "address",
          "name": "dex",
          "type": "address"
        },
        {
          "internalType": "uint256",
          "name": "amountIn",
          "type": "uint256"
        },
        {
          "internalType": "bytes",
          "name": "swapCall",
          "type": "bytes"
        },
        {
          "internalType": "uint256",
          "name": "expectedAmount",
          "type": "uint256"
        }
      ],
      "name": "transferAndSwap",
      "outputs": [],
      "stateMutability": "nonpayable",
      "type": "function"
    },
    {
      "inputs": [
        {
          "internalType": "address",
          "name": "token",
          "type": "address"
        },
        {
          "internalType": "address",
          "name": "to",
          "type": "address"
        },
        {
          "internalType": "uint256",
          "name": "amount",
          "type": "uint256"
        }
      ],
      "name": "transferToken",
      "outputs": [],
      "stateMutability": "nonpayable",
      "type": "function"
    }
  ],
  "bytecode": "0x6080604052606460005534801561001557600080fd5b50611ac6806100256000396000f3fe608060405234801561001057600080fd5b506004361061007d5760003560e01c806342643f971161005b57806342643f97146100ea57806373d4a13a146101065780639cdbc36214610124578063f5537ede146101405761007d565b806302805954146100825780630af4187d1461009e57806313d06a4c146100ce575b600080fd5b61009c60048036038101906100979190610f9c565b61015c565b005b6100b860048036038101906100b39190611014565b6102a6565b6040516100c5919061106d565b60405180910390f35b6100e860048036038101906100e39190611177565b61032c565b005b61010460048036038101906100ff919061121e565b6104b5565b005b61010e610845565b60405161011b919061106d565b60405180910390f35b61013e600480360381019061013991906112c7565b61084b565b005b61015a6004803603810190610155919061139e565b610bb5565b005b80518251146101a0576040517f08c379a000000000000000000000000000000000000000000000000000000000815260040161019790611474565b60405180910390fd5b60005b82518110156102a15760008382815181106101c1576101c0611494565b5b602002602001015173ffffffffffffffffffffffffffffffffffffffff168383815181106101f2576101f1611494565b5b60200260200101516040516102079190611534565b6000604051808303816000865af19150503d8060008114610244576040519150601f19603f3d011682016040523d82523d6000602084013e610249565b606091505b505090508061028d576040517f08c379a000000000000000000000000000000000000000000000000000000000815260040161028490611597565b60405180910390fd5b508080610299906115e6565b9150506101a3565b505050565b60008273ffffffffffffffffffffffffffffffffffffffff1663dd62ed3e83306040518363ffffffff1660e01b81526004016102e392919061163d565b602060405180830381865afa158015610300573d6000803e3d6000fd5b505050506040513d601f19601f82011682018060405250810190610324919061167b565b905092915050565b8151835114801561033e575080518251145b61037d576040517f08c379a00000000000000000000000000000000000000000000000000000000081526004016103749061171a565b60405180910390fd5b60005b83518110156104af57600084828151811061039e5761039d611494565b5b602002602001015190508073ffffffffffffffffffffffffffffffffffffffff166323b872dd338685815181106103d8576103d7611494565b5b60200260200101518686815181106103f3576103f2611494565b5b60200260200101516040518463ffffffff1660e01b81526004016104199392919061173a565b6020604051808303816000875af1158015610438573d6000803e3d6000fd5b505050506040513d601f19601f8201168201806040525081019061045c91906117a9565b61049b576040517f08c379a000000000000000000000000000000000000000000000000000000000815260040161049290611822565b60405180910390fd5b5080806104a7906115e6565b915050610380565b50505050565b600086905060008690508173ffffffffffffffffffffffffffffffffffffffff166323b872dd3388886040518463ffffffff1660e01b81526004016104fc9392919061173a565b6020604051808303816000875af115801561051b573d6000803e3d6000fd5b505050506040513d601f19601f8201168201806040525081019061053f91906117a9565b61057e576040517f08c379a00000000000000000000000000000000000000000000000000000000081526004016105759061188e565b60405180910390fd5b8173ffffffffffffffffffffffffffffffffffffffff1663095ea7b387876040518363ffffffff1660e01b81526004016105b99291906118ae565b6020604051808303816000875af11580156105d8573d6000803e3d6000fd5b505050506040513d601f19601f820116820180604052508101906105fc91906117a9565b61063b576040517f08c379a000000000000000000000000000000000000000000000000000000000815260040161063290611923565b60405180910390fd5b60008173ffffffffffffffffffffffffffffffffffffffff166370a08231336040518263ffffffff1660e01b81526004016106769190611943565b602060405180830381865afa158015610693573d6000803e3d6000fd5b505050506040513d601f19601f820116820180604052508101906106b7919061167b565b905060008773ffffffffffffffffffffffffffffffffffffffff16866040516106e09190611534565b6000604051808303816000865af19150503d806000811461071d576040519150601f19603f3d011682016040523d82523d6000602084013e610722565b606091505b5050905080610766576040517f08c379a000000000000000000000000000000000000000000000000000000000815260040161075d90611597565b60405180910390fd5b60008373ffffffffffffffffffffffffffffffffffffffff166370a08231336040518263ffffffff1660e01b81526004016107a19190611943565b602060405180830381865afa1580156107be573d6000803e3d6000fd5b505050506040513d601f19601f820116820180604052508101906107e2919061167b565b9050600083826107f2919061195e565b905086811015610837576040517f08c379a000000000000000000000000000000000000000000000000000000000815260040161082e90611a04565b60405180910390fd5b505050505050505050505050565b60005481565b8251845114801561085d575081518351145b801561086a575080518251145b6108a9576040517f08c379a00000000000000000000000000000000000000000000000000000000081526004016108a090611a70565b60405180910390fd5b60005b8451811015610bae5760008582815181106108ca576108c9611494565b5b602002602001015190508073ffffffffffffffffffffffffffffffffffffffff166323b872dd3387858151811061090457610903611494565b5b602002602001015187868151811061091f5761091e611494565b5b60200260200101516040518463ffffffff1660e01b81526004016109459392919061173a565b6020604051808303816000875af1158015610964573d6000803e3d6000fd5b505050506040513d601f19601f8201168201806040525081019061098891906117a9565b6109c7576040517f08c379a00000000000000000000000000000000000000000000000000000000081526004016109be9061188e565b60405180910390fd5b8073ffffffffffffffffffffffffffffffffffffffff1663095ea7b38684815181106109f6576109f5611494565b5b6020026020010151868581518110610a1157610a10611494565b5b60200260200101516040518363ffffffff1660e01b8152600401610a369291906118ae565b6020604051808303816000875af1158015610a55573d6000803e3d6000fd5b505050506040513d601f19601f82011682018060405250810190610a7991906117a9565b610ab8576040517f08c379a0000000000000000000000000000000000000000000000000000000008152600401610aaf90611923565b60405180910390fd5b6000858381518110610acd57610acc611494565b5b602002602001015173ffffffffffffffffffffffffffffffffffffffff16848481518110610afe57610afd611494565b5b6020026020010151604051610b139190611534565b6000604051808303816000865af19150503d8060008114610b50576040519150601f19603f3d011682016040523d82523d6000602084013e610b55565b606091505b5050905080610b99576040517f08c379a0000000000000000000000000000000000000000000000000000000008152600401610b9090611597565b60405180910390fd5b50508080610ba6906115e6565b9150506108ac565b5050505050565b8273ffffffffffffffffffffffffffffffffffffffff166323b872dd3384846040518463ffffffff1660e01b8152600401610bf29392919061173a565b6020604051808303816000875af1158015610c11573d6000803e3d6000fd5b505050506040513d601f19601f82011682018060405250810190610c3591906117a9565b50505050565b6000604051905090565b600080fd5b600080fd5b600080fd5b6000601f19601f8301169050919050565b7f4e487b7100000000000000000000000000000000000000000000000000000000600052604160045260246000fd5b610c9d82610c54565b810181811067ffffffffffffffff82111715610cbc57610cbb610c65565b5b80604052505050565b6000610ccf610c3b565b9050610cdb8282610c94565b919050565b600067ffffffffffffffff821115610cfb57610cfa610c65565b5b602082029050602081019050919050565b600080fd5b600073ffffffffffffffffffffffffffffffffffffffff82169050919050565b6000610d3c82610d11565b9050919050565b610d4c81610d31565b8114610d5757600080fd5b50565b600081359050610d6981610d43565b92915050565b6000610d82610d7d84610ce0565b610cc5565b90508083825260208201905060208402830185811115610da557610da4610d0c565b5b835b81811015610dce5780610dba8882610d5a565b845260208401935050602081019050610da7565b5050509392505050565b600082601f830112610ded57610dec610c4f565b5b8135610dfd848260208601610d6f565b91505092915050565b600067ffffffffffffffff821115610e2157610e20610c65565b5b602082029050602081019050919050565b600080fd5b600067ffffffffffffffff821115610e5257610e51610c65565b5b610e5b82610c54565b9050602081019050919050565b82818337600083830152505050565b6000610e8a610e8584610e37565b610cc5565b905082815260208101848484011115610ea657610ea5610e32565b5b610eb1848285610e68565b509392505050565b600082601f830112610ece57610ecd610c4f565b5b8135610ede848260208601610e77565b91505092915050565b6000610efa610ef584610e06565b610cc5565b90508083825260208201905060208402830185811115610f1d57610f1c610d0c565b5b835b81811015610f6457803567ffffffffffffffff811115610f4257610f41610c4f565b5b808601610f4f8982610eb9565b85526020850194505050602081019050610f1f565b5050509392505050565b600082601f830112610f8357610f82610c4f565b5b8135610f93848260208601610ee7565b91505092915050565b60008060408385031215610fb357610fb2610c45565b5b600083013567ffffffffffffffff811115610fd157610fd0610c4a565b5b610fdd85828601610dd8565b925050602083013567ffffffffffffffff811115610ffe57610ffd610c4a565b5b61100a85828601610f6e565b9150509250929050565b6000806040838503121561102b5761102a610c45565b5b600061103985828601610d5a565b925050602061104a85828601610d5a565b9150509250929050565b6000819050919050565b61106781611054565b82525050565b6000602082019050611082600083018461105e565b92915050565b600067ffffffffffffffff8211156110a3576110a2610c65565b5b602082029050602081019050919050565b6110bd81611054565b81146110c857600080fd5b50565b6000813590506110da816110b4565b92915050565b60006110f36110ee84611088565b610cc5565b9050808382526020820190506020840283018581111561111657611115610d0c565b5b835b8181101561113f578061112b88826110cb565b845260208401935050602081019050611118565b5050509392505050565b600082601f83011261115e5761115d610c4f565b5b813561116e8482602086016110e0565b91505092915050565b6000806000606084860312156111905761118f610c45565b5b600084013567ffffffffffffffff8111156111ae576111ad610c4a565b5b6111ba86828701610dd8565b935050602084013567ffffffffffffffff8111156111db576111da610c4a565b5b6111e786828701610dd8565b925050604084013567ffffffffffffffff81111561120857611207610c4a565b5b61121486828701611149565b9150509250925092565b60008060008060008060c0878903121561123b5761123a610c45565b5b600061124989828a01610d5a565b965050602061125a89828a01610d5a565b955050604061126b89828a01610d5a565b945050606061127c89828a016110cb565b935050608087013567ffffffffffffffff81111561129d5761129c610c4a565b5b6112a989828a01610eb9565b92505060a06112ba89828a016110cb565b9150509295509295509295565b600080600080608085870312156112e1576112e0610c45565b5b600085013567ffffffffffffffff8111156112ff576112fe610c4a565b5b61130b87828801610dd8565b945050602085013567ffffffffffffffff81111561132c5761132b610c4a565b5b61133887828801610dd8565b935050604085013567ffffffffffffffff81111561135957611358610c4a565b5b61136587828801611149565b925050606085013567ffffffffffffffff81111561138657611385610c4a565b5b61139287828801610f6e565b91505092959194509250565b6000806000606084860312156113b7576113b6610c45565b5b60006113c586828701610d5a565b93505060206113d686828701610d5a565b92505060406113e7868287016110cb565b9150509250925092565b600082825260208201905092915050565b7f446578657320616e642063616c6c7320617272617973206d757374206861766560008201527f207468652073616d65206c656e67746800000000000000000000000000000000602082015250565b600061145e6030836113f1565b915061146982611402565b604082019050919050565b6000602082019050818103600083015261148d81611451565b9050919050565b7f4e487b7100000000000000000000000000000000000000000000000000000000600052603260045260246000fd5b600081519050919050565b600081905092915050565b60005b838110156114f75780820151818401526020810190506114dc565b60008484015250505050565b600061150e826114c3565b61151881856114ce565b93506115288185602086016114d9565b80840191505092915050565b60006115408284611503565b915081905092915050565b7f53776170206661696c6564000000000000000000000000000000000000000000600082015250565b6000611581600b836113f1565b915061158c8261154b565b602082019050919050565b600060208201905081810360008301526115b081611574565b9050919050565b7f4e487b7100000000000000000000000000000000000000000000000000000000600052601160045260246000fd5b60006115f182611054565b91507fffffffffffffffffffffffffffffffffffffffffffffffffffffffffffffffff8203611623576116226115b7565b5b600182019050919050565b61163781610d31565b82525050565b6000604082019050611652600083018561162e565b61165f602083018461162e565b9392505050565b600081519050611675816110b4565b92915050565b60006020828403121561169157611690610c45565b5b600061169f84828501611666565b91505092915050565b7f496e70757420617272617973206d7573742068617665207468652073616d652060008201527f6c656e6774680000000000000000000000000000000000000000000000000000602082015250565b60006117046026836113f1565b915061170f826116a8565b604082019050919050565b60006020820190508181036000830152611733816116f7565b9050919050565b600060608201905061174f600083018661162e565b61175c602083018561162e565b611769604083018461105e565b949350505050565b60008115159050919050565b61178681611771565b811461179157600080fd5b50565b6000815190506117a38161177d565b92915050565b6000602082840312156117bf576117be610c45565b5b60006117cd84828501611794565b91505092915050565b7f5472616e73666572206661696c65640000000000000000000000000000000000600082015250565b600061180c600f836113f1565b9150611817826117d6565b602082019050919050565b6000602082019050818103600083015261183b816117ff565b9050919050565b7f5472616e7366657220746f20444558206661696c656400000000000000000000600082015250565b60006118786016836113f1565b915061188382611842565b602082019050919050565b600060208201905081810360008301526118a78161186b565b9050919050565b60006040820190506118c3600083018561162e565b6118d0602083018461105e565b9392505050565b7f417070726f76616c206661696c65640000000000000000000000000000000000600082015250565b600061190d600f836113f1565b9150611918826118d7565b602082019050919050565b6000602082019050818103600083015261193c81611900565b9050919050565b6000602082019050611958600083018461162e565b92915050565b600061196982611054565b915061197483611054565b925082820390508181111561198c5761198b6115b7565b5b92915050565b7f526563656976656420616d6f756e74206973206c657373207468616e2065787060008201527f6563746564000000000000000000000000000000000000000000000000000000602082015250565b60006119ee6025836113f1565b91506119f982611992565b604082019050919050565b60006020820190508181036000830152611a1d816119e1565b9050919050565b7f417272617973206d7573742068617665207468652073616d65206c656e677468600082015250565b6000611a5a6020836113f1565b9150611a6582611a24565b602082019050919050565b60006020820190508181036000830152611a8981611a4d565b905091905056fea26469706673582212203dd7e27f95681628d3c74c09191665d41720ec0c383d15ed25664f1242c6b10864736f6c63430008130033",
  "linkReferences": {},
  "deployedLinkReferences": {}
}