{
  "_format": "hh-sol-artifact-1",
  "contractName": "Batch",
  "sourceName": "contracts/Batch.sol",
  "abi": [
    {
      "inputs": [],
      "name": "testCall",
      "outputs": [],
      "stateMutability": "pure",
      "type": "function"
    },
    {
      "inputs": [],
      "name": "testData",
      "outputs": [
        {
          "internalType": "uint256",
          "name": "",
          "type": "uint256"
        }
      ],
      "stateMutability": "view",
      "type": "function"
    },
    {
      "inputs": [
        {
          "internalType": "address",
          "name": "inputToken",
          "type": "address"
        },
        {
          "internalType": "address",
          "name": "outputToken",
          "type": "address"
        },
        {
          "internalType": "address",
          "name": "dex",
          "type": "address"
        },
        {
          "internalType": "uint256",
          "name": "amountIn",
          "type": "uint256"
        },
        {
          "internalType": "uint256",
          "name": "expectedAmount",
          "type": "uint256"
        },
        {
          "internalType": "uint256",
          "name": "amount0Out",
          "type": "uint256"
        },
        {
          "internalType": "uint256",
          "name": "amount1Out",
          "type": "uint256"
        },
        {
          "internalType": "address",
          "name": "to",
          "type": "address"
        },
        {
          "internalType": "bytes",
          "name": "data",
          "type": "bytes"
        }
      ],
      "name": "transferAndSwapHigh",
      "outputs": [],
      "stateMutability": "nonpayable",
      "type": "function"
    }
  ],
  "bytecode": "0x6080604052606460005534801561001557600080fd5b50611068806100256000396000f3fe608060405234801561001057600080fd5b50600436106100415760003560e01c8063016cbd5114610046578063b7f0583614610064578063ee6e978c1461006e575b600080fd5b61004e61008a565b60405161005b91906107ef565b60405180910390f35b61006c610090565b005b610088600480360381019061008391906109ee565b6100d0565b005b60005481565b6100ce6040518060400160405280600481526020017f5445535400000000000000000000000000000000000000000000000000000000815250610651565b565b61010e6040518060400160405280600f81526020017f455845435554494e472042415443480000000000000000000000000000000000815250610651565b600089905060008990508173ffffffffffffffffffffffffffffffffffffffff166323b872dd338b8b6040518463ffffffff1660e01b815260040161015593929190610ae3565b6020604051808303816000875af1158015610174573d6000803e3d6000fd5b505050506040513d601f19601f820116820180604052508101906101989190610b52565b6101d7576040517f08c379a00000000000000000000000000000000000000000000000000000000081526004016101ce90610bdc565b60405180910390fd5b6102156040518060400160405280601781526020017f535543434553533a205452414e5346455220544f4b454e000000000000000000815250610651565b8173ffffffffffffffffffffffffffffffffffffffff1663095ea7b38a8a6040518363ffffffff1660e01b8152600401610250929190610bfc565b6020604051808303816000875af115801561026f573d6000803e3d6000fd5b505050506040513d601f19601f820116820180604052508101906102939190610b52565b6102d2576040517f08c379a00000000000000000000000000000000000000000000000000000000081526004016102c990610c71565b60405180910390fd5b6103106040518060400160405280601781526020017f535543434553533a20544f4b454e20415050524f564544000000000000000000815250610651565b60008173ffffffffffffffffffffffffffffffffffffffff166370a08231336040518263ffffffff1660e01b815260040161034b9190610c91565b602060405180830381865afa158015610368573d6000803e3d6000fd5b505050506040513d601f19601f8201168201806040525081019061038c9190610cc1565b90506103cd6040518060400160405280601381526020017f546f6b656e204f757420496e697469616c3a2000000000000000000000000000815250826106ea565b8973ffffffffffffffffffffffffffffffffffffffff1663022c0d9f888888886040518563ffffffff1660e01b815260040161040c9493929190610d6d565b600060405180830381600087803b15801561042657600080fd5b505af1925050508015610437575060015b6104b457610443610dc6565b806308c379a0036104a85750610457610de8565b8061046257506104aa565b61046b81610651565b806040517f08c379a000000000000000000000000000000000000000000000000000000000815260040161049f9190610ebc565b60405180910390fd5b505b3d6000803e3d6000fd5b6104f26040518060400160405280600c81526020017f5377617020737563636573730000000000000000000000000000000000000000815250610651565b60008273ffffffffffffffffffffffffffffffffffffffff166370a08231336040518263ffffffff1660e01b815260040161052d9190610c91565b602060405180830381865afa15801561054a573d6000803e3d6000fd5b505050506040513d601f19601f8201168201806040525081019061056e9190610cc1565b90506105af6040518060400160405280601181526020017f546f6b656e204f75742046696e616c3a20000000000000000000000000000000815250826106ea565b600082826105bd9190610f0d565b90506105fe6040518060400160405280601181526020017f526563656976656420416d6f756e743a20000000000000000000000000000000815250826106ea565b89811015610641576040517f08c379a000000000000000000000000000000000000000000000000000000000815260040161063890610fb3565b60405180910390fd5b5050505050505050505050505050565b6106e7816040516024016106659190610ebc565b6040516020818303038152906040527f41304fac000000000000000000000000000000000000000000000000000000007bffffffffffffffffffffffffffffffffffffffffffffffffffffffff19166020820180517bffffffffffffffffffffffffffffffffffffffffffffffffffffffff8381831617835250505050610786565b50565b6107828282604051602401610700929190610fd3565b6040516020818303038152906040527fb60e72cc000000000000000000000000000000000000000000000000000000007bffffffffffffffffffffffffffffffffffffffffffffffffffffffff19166020820180517bffffffffffffffffffffffffffffffffffffffffffffffffffffffff8381831617835250505050610786565b5050565b61079d816107956107a06107c1565b63ffffffff16565b50565b60006a636f6e736f6c652e6c6f679050600080835160208501845afa505050565b6107cc819050919050565b6107d4611003565b565b6000819050919050565b6107e9816107d6565b82525050565b600060208201905061080460008301846107e0565b92915050565b6000604051905090565b600080fd5b600080fd5b600073ffffffffffffffffffffffffffffffffffffffff82169050919050565b60006108498261081e565b9050919050565b6108598161083e565b811461086457600080fd5b50565b60008135905061087681610850565b92915050565b610885816107d6565b811461089057600080fd5b50565b6000813590506108a28161087c565b92915050565b600080fd5b600080fd5b6000601f19601f8301169050919050565b7f4e487b7100000000000000000000000000000000000000000000000000000000600052604160045260246000fd5b6108fb826108b2565b810181811067ffffffffffffffff8211171561091a576109196108c3565b5b80604052505050565b600061092d61080a565b905061093982826108f2565b919050565b600067ffffffffffffffff821115610959576109586108c3565b5b610962826108b2565b9050602081019050919050565b82818337600083830152505050565b600061099161098c8461093e565b610923565b9050828152602081018484840111156109ad576109ac6108ad565b5b6109b884828561096f565b509392505050565b600082601f8301126109d5576109d46108a8565b5b81356109e584826020860161097e565b91505092915050565b60008060008060008060008060006101208a8c031215610a1157610a10610814565b5b6000610a1f8c828d01610867565b9950506020610a308c828d01610867565b9850506040610a418c828d01610867565b9750506060610a528c828d01610893565b9650506080610a638c828d01610893565b95505060a0610a748c828d01610893565b94505060c0610a858c828d01610893565b93505060e0610a968c828d01610867565b9250506101008a013567ffffffffffffffff811115610ab857610ab7610819565b5b610ac48c828d016109c0565b9150509295985092959850929598565b610add8161083e565b82525050565b6000606082019050610af86000830186610ad4565b610b056020830185610ad4565b610b1260408301846107e0565b949350505050565b60008115159050919050565b610b2f81610b1a565b8114610b3a57600080fd5b50565b600081519050610b4c81610b26565b92915050565b600060208284031215610b6857610b67610814565b5b6000610b7684828501610b3d565b91505092915050565b600082825260208201905092915050565b7f5472616e7366657220746f20444558206661696c656400000000000000000000600082015250565b6000610bc6601683610b7f565b9150610bd182610b90565b602082019050919050565b60006020820190508181036000830152610bf581610bb9565b9050919050565b6000604082019050610c116000830185610ad4565b610c1e60208301846107e0565b9392505050565b7f417070726f76616c206661696c65640000000000000000000000000000000000600082015250565b6000610c5b600f83610b7f565b9150610c6682610c25565b602082019050919050565b60006020820190508181036000830152610c8a81610c4e565b9050919050565b6000602082019050610ca66000830184610ad4565b92915050565b600081519050610cbb8161087c565b92915050565b600060208284031215610cd757610cd6610814565b5b6000610ce584828501610cac565b91505092915050565b600081519050919050565b600082825260208201905092915050565b60005b83811015610d28578082015181840152602081019050610d0d565b60008484015250505050565b6000610d3f82610cee565b610d498185610cf9565b9350610d59818560208601610d0a565b610d62816108b2565b840191505092915050565b6000608082019050610d8260008301876107e0565b610d8f60208301866107e0565b610d9c6040830185610ad4565b8181036060830152610dae8184610d34565b905095945050505050565b60008160e01c9050919050565b600060033d1115610de55760046000803e610de2600051610db9565b90505b90565b600060443d10610e7557610dfa61080a565b60043d036004823e80513d602482011167ffffffffffffffff82111715610e22575050610e75565b808201805167ffffffffffffffff811115610e405750505050610e75565b80602083010160043d038501811115610e5d575050505050610e75565b610e6c826020018501866108f2565b82955050505050505b90565b600081519050919050565b6000610e8e82610e78565b610e988185610b7f565b9350610ea8818560208601610d0a565b610eb1816108b2565b840191505092915050565b60006020820190508181036000830152610ed68184610e83565b905092915050565b7f4e487b7100000000000000000000000000000000000000000000000000000000600052601160045260246000fd5b6000610f18826107d6565b9150610f23836107d6565b9250828203905081811115610f3b57610f3a610ede565b5b92915050565b7f526563656976656420616d6f756e74206973206c657373207468616e2065787060008201527f6563746564000000000000000000000000000000000000000000000000000000602082015250565b6000610f9d602583610b7f565b9150610fa882610f41565b604082019050919050565b60006020820190508181036000830152610fcc81610f90565b9050919050565b60006040820190508181036000830152610fed8185610e83565b9050610ffc60208301846107e0565b9392505050565b7f4e487b7100000000000000000000000000000000000000000000000000000000600052605160045260246000fdfea26469706673582212206d70a1ca533270eaa043bb906b88628f76d57ae4eff9966dda31c0ed7702a6a964736f6c63430008130033",
  "linkReferences": {},
  "deployedLinkReferences": {}
}