{
  "_format": "hh-sol-artifact-1",
  "contractName": "Batch",
  "sourceName": "contracts/Batch.sol",
  "abi": [
    {
      "inputs": [
        {
          "internalType": "address[]",
          "name": "dexes",
          "type": "address[]"
        },
        {
          "internalType": "bytes[]",
          "name": "calls",
          "type": "bytes[]"
        }
      ],
      "name": "batchSwap",
      "outputs": [],
      "stateMutability": "nonpayable",
      "type": "function"
    },
    {
      "inputs": [
        {
          "internalType": "address[]",
          "name": "tokens",
          "type": "address[]"
        },
        {
          "internalType": "address[]",
          "name": "to",
          "type": "address[]"
        },
        {
          "internalType": "uint256[]",
          "name": "amounts",
          "type": "uint256[]"
        }
      ],
      "name": "batchTransfer",
      "outputs": [],
      "stateMutability": "nonpayable",
      "type": "function"
    },
    {
      "inputs": [
        {
          "internalType": "address[]",
          "name": "tokens",
          "type": "address[]"
        },
        {
          "internalType": "address[]",
          "name": "dexes",
          "type": "address[]"
        },
        {
          "internalType": "uint256[]",
          "name": "amounts",
          "type": "uint256[]"
        },
        {
          "internalType": "bytes[]",
          "name": "swapCalls",
          "type": "bytes[]"
        }
      ],
      "name": "batchTransferAndSwap",
      "outputs": [],
      "stateMutability": "nonpayable",
      "type": "function"
    },
    {
      "inputs": [
        {
          "internalType": "address",
          "name": "token",
          "type": "address"
        },
        {
          "internalType": "address",
          "name": "owner",
          "type": "address"
        }
      ],
      "name": "getAllowance",
      "outputs": [
        {
          "internalType": "uint256",
          "name": "",
          "type": "uint256"
        }
      ],
      "stateMutability": "view",
      "type": "function"
    },
    {
      "inputs": [
        {
          "internalType": "address",
          "name": "inputToken",
          "type": "address"
        },
        {
          "internalType": "address",
          "name": "outputToken",
          "type": "address"
        },
        {
          "internalType": "address",
          "name": "dex",
          "type": "address"
        },
        {
          "internalType": "uint256",
          "name": "amountIn",
          "type": "uint256"
        },
        {
          "internalType": "bytes",
          "name": "swapCall",
          "type": "bytes"
        },
        {
          "internalType": "uint256",
          "name": "expectedAmount",
          "type": "uint256"
        },
        {
          "internalType": "uint256",
          "name": "amount0Out",
          "type": "uint256"
        },
        {
          "internalType": "uint256",
          "name": "amount1Out",
          "type": "uint256"
        },
        {
          "internalType": "address",
          "name": "to",
          "type": "address"
        },
        {
          "internalType": "bytes",
          "name": "data",
          "type": "bytes"
        }
      ],
      "name": "transferAndSwap",
      "outputs": [],
      "stateMutability": "nonpayable",
      "type": "function"
    },
    {
      "inputs": [
        {
          "internalType": "address",
          "name": "token",
          "type": "address"
        },
        {
          "internalType": "address",
          "name": "to",
          "type": "address"
        },
        {
          "internalType": "uint256",
          "name": "amount",
          "type": "uint256"
        }
      ],
      "name": "transferToken",
      "outputs": [],
      "stateMutability": "nonpayable",
      "type": "function"
    }
  ],
  "bytecode": "0x608060405234801561001057600080fd5b50611fcc806100206000396000f3fe608060405234801561001057600080fd5b50600436106100625760003560e01c806302805954146100675780630af4187d1461008357806313d06a4c146100b35780638df414e1146100cf5780639cdbc362146100eb578063f5537ede14610107575b600080fd5b610081600480360381019061007c919061121a565b610123565b005b61009d60048036038101906100989190611292565b61026d565b6040516100aa91906112eb565b60405180910390f35b6100cd60048036038101906100c891906113f5565b6102f3565b005b6100e960048036038101906100e4919061149c565b61047c565b005b610105600480360381019061010091906115b3565b610944565b005b610121600480360381019061011c919061168a565b610cae565b005b8051825114610167576040517f08c379a000000000000000000000000000000000000000000000000000000000815260040161015e90611760565b60405180910390fd5b60005b825181101561026857600083828151811061018857610187611780565b5b602002602001015173ffffffffffffffffffffffffffffffffffffffff168383815181106101b9576101b8611780565b5b60200260200101516040516101ce9190611820565b6000604051808303816000865af19150503d806000811461020b576040519150601f19603f3d011682016040523d82523d6000602084013e610210565b606091505b5050905080610254576040517f08c379a000000000000000000000000000000000000000000000000000000000815260040161024b90611883565b60405180910390fd5b508080610260906118d2565b91505061016a565b505050565b60008273ffffffffffffffffffffffffffffffffffffffff1663dd62ed3e83306040518363ffffffff1660e01b81526004016102aa929190611929565b602060405180830381865afa1580156102c7573d6000803e3d6000fd5b505050506040513d601f19601f820116820180604052508101906102eb9190611967565b905092915050565b81518351148015610305575080518251145b610344576040517f08c379a000000000000000000000000000000000000000000000000000000000815260040161033b90611a06565b60405180910390fd5b60005b835181101561047657600084828151811061036557610364611780565b5b602002602001015190508073ffffffffffffffffffffffffffffffffffffffff166323b872dd3386858151811061039f5761039e611780565b5b60200260200101518686815181106103ba576103b9611780565b5b60200260200101516040518463ffffffff1660e01b81526004016103e093929190611a26565b6020604051808303816000875af11580156103ff573d6000803e3d6000fd5b505050506040513d601f19601f820116820180604052508101906104239190611a95565b610462576040517f08c379a000000000000000000000000000000000000000000000000000000000815260040161045990611b0e565b60405180910390fd5b50808061046e906118d2565b915050610347565b50505050565b60008a905060008a90508173ffffffffffffffffffffffffffffffffffffffff166323b872dd338c8c6040518463ffffffff1660e01b81526004016104c393929190611a26565b6020604051808303816000875af11580156104e2573d6000803e3d6000fd5b505050506040513d601f19601f820116820180604052508101906105069190611a95565b610545576040517f08c379a000000000000000000000000000000000000000000000000000000000815260040161053c90611b7a565b60405180910390fd5b8173ffffffffffffffffffffffffffffffffffffffff1663095ea7b38b8b6040518363ffffffff1660e01b8152600401610580929190611b9a565b6020604051808303816000875af115801561059f573d6000803e3d6000fd5b505050506040513d601f19601f820116820180604052508101906105c39190611a95565b610602576040517f08c379a00000000000000000000000000000000000000000000000000000000081526004016105f990611c0f565b60405180910390fd5b60008173ffffffffffffffffffffffffffffffffffffffff166370a08231336040518263ffffffff1660e01b815260040161063d9190611c2f565b602060405180830381865afa15801561065a573d6000803e3d6000fd5b505050506040513d601f19601f8201168201806040525081019061067e9190611967565b90506106bf6040518060400160405280601381526020017f546f6b656e204f757420496e697469616c3a200000000000000000000000000081525082610d34565b8a73ffffffffffffffffffffffffffffffffffffffff1663022c0d9f888888886040518563ffffffff1660e01b81526004016106fe9493929190611c94565b600060405180830381600087803b15801561071857600080fd5b505af1925050508015610729575060015b6107a657610735611ced565b806308c379a00361079a5750610749611d0f565b80610754575061079c565b61075d81610dd0565b806040517f08c379a00000000000000000000000000000000000000000000000000000000081526004016107919190611de3565b60405180910390fd5b505b3d6000803e3d6000fd5b6107e46040518060400160405280600c81526020017f5377617020737563636573730000000000000000000000000000000000000000815250610dd0565b60008273ffffffffffffffffffffffffffffffffffffffff166370a08231336040518263ffffffff1660e01b815260040161081f9190611c2f565b602060405180830381865afa15801561083c573d6000803e3d6000fd5b505050506040513d601f19601f820116820180604052508101906108609190611967565b90506108a16040518060400160405280601181526020017f546f6b656e204f75742046696e616c3a2000000000000000000000000000000081525082610d34565b600082826108af9190611e05565b90506108f06040518060400160405280601181526020017f526563656976656420416d6f756e743a2000000000000000000000000000000081525082610d34565b89811015610933576040517f08c379a000000000000000000000000000000000000000000000000000000000815260040161092a90611eab565b60405180910390fd5b505050505050505050505050505050565b82518451148015610956575081518351145b8015610963575080518251145b6109a2576040517f08c379a000000000000000000000000000000000000000000000000000000000815260040161099990611f17565b60405180910390fd5b60005b8451811015610ca75760008582815181106109c3576109c2611780565b5b602002602001015190508073ffffffffffffffffffffffffffffffffffffffff166323b872dd338785815181106109fd576109fc611780565b5b6020026020010151878681518110610a1857610a17611780565b5b60200260200101516040518463ffffffff1660e01b8152600401610a3e93929190611a26565b6020604051808303816000875af1158015610a5d573d6000803e3d6000fd5b505050506040513d601f19601f82011682018060405250810190610a819190611a95565b610ac0576040517f08c379a0000000000000000000000000000000000000000000000000000000008152600401610ab790611b7a565b60405180910390fd5b8073ffffffffffffffffffffffffffffffffffffffff1663095ea7b3868481518110610aef57610aee611780565b5b6020026020010151868581518110610b0a57610b09611780565b5b60200260200101516040518363ffffffff1660e01b8152600401610b2f929190611b9a565b6020604051808303816000875af1158015610b4e573d6000803e3d6000fd5b505050506040513d601f19601f82011682018060405250810190610b729190611a95565b610bb1576040517f08c379a0000000000000000000000000000000000000000000000000000000008152600401610ba890611c0f565b60405180910390fd5b6000858381518110610bc657610bc5611780565b5b602002602001015173ffffffffffffffffffffffffffffffffffffffff16848481518110610bf757610bf6611780565b5b6020026020010151604051610c0c9190611820565b6000604051808303816000865af19150503d8060008114610c49576040519150601f19603f3d011682016040523d82523d6000602084013e610c4e565b606091505b5050905080610c92576040517f08c379a0000000000000000000000000000000000000000000000000000000008152600401610c8990611883565b60405180910390fd5b50508080610c9f906118d2565b9150506109a5565b5050505050565b8273ffffffffffffffffffffffffffffffffffffffff166323b872dd3384846040518463ffffffff1660e01b8152600401610ceb93929190611a26565b6020604051808303816000875af1158015610d0a573d6000803e3d6000fd5b505050506040513d601f19601f82011682018060405250810190610d2e9190611a95565b50505050565b610dcc8282604051602401610d4a929190611f37565b6040516020818303038152906040527fb60e72cc000000000000000000000000000000000000000000000000000000007bffffffffffffffffffffffffffffffffffffffffffffffffffffffff19166020820180517bffffffffffffffffffffffffffffffffffffffffffffffffffffffff8381831617835250505050610e69565b5050565b610e6681604051602401610de49190611de3565b6040516020818303038152906040527f41304fac000000000000000000000000000000000000000000000000000000007bffffffffffffffffffffffffffffffffffffffffffffffffffffffff19166020820180517bffffffffffffffffffffffffffffffffffffffffffffffffffffffff8381831617835250505050610e69565b50565b610e8081610e78610e83610ea4565b63ffffffff16565b50565b60006a636f6e736f6c652e6c6f679050600080835160208501845afa505050565b610eaf819050919050565b610eb7611f67565b565b6000604051905090565b600080fd5b600080fd5b600080fd5b6000601f19601f8301169050919050565b7f4e487b7100000000000000000000000000000000000000000000000000000000600052604160045260246000fd5b610f1b82610ed2565b810181811067ffffffffffffffff82111715610f3a57610f39610ee3565b5b80604052505050565b6000610f4d610eb9565b9050610f598282610f12565b919050565b600067ffffffffffffffff821115610f7957610f78610ee3565b5b602082029050602081019050919050565b600080fd5b600073ffffffffffffffffffffffffffffffffffffffff82169050919050565b6000610fba82610f8f565b9050919050565b610fca81610faf565b8114610fd557600080fd5b50565b600081359050610fe781610fc1565b92915050565b6000611000610ffb84610f5e565b610f43565b9050808382526020820190506020840283018581111561102357611022610f8a565b5b835b8181101561104c57806110388882610fd8565b845260208401935050602081019050611025565b5050509392505050565b600082601f83011261106b5761106a610ecd565b5b813561107b848260208601610fed565b91505092915050565b600067ffffffffffffffff82111561109f5761109e610ee3565b5b602082029050602081019050919050565b600080fd5b600067ffffffffffffffff8211156110d0576110cf610ee3565b5b6110d982610ed2565b9050602081019050919050565b82818337600083830152505050565b6000611108611103846110b5565b610f43565b905082815260208101848484011115611124576111236110b0565b5b61112f8482856110e6565b509392505050565b600082601f83011261114c5761114b610ecd565b5b813561115c8482602086016110f5565b91505092915050565b600061117861117384611084565b610f43565b9050808382526020820190506020840283018581111561119b5761119a610f8a565b5b835b818110156111e257803567ffffffffffffffff8111156111c0576111bf610ecd565b5b8086016111cd8982611137565b8552602085019450505060208101905061119d565b5050509392505050565b600082601f83011261120157611200610ecd565b5b8135611211848260208601611165565b91505092915050565b6000806040838503121561123157611230610ec3565b5b600083013567ffffffffffffffff81111561124f5761124e610ec8565b5b61125b85828601611056565b925050602083013567ffffffffffffffff81111561127c5761127b610ec8565b5b611288858286016111ec565b9150509250929050565b600080604083850312156112a9576112a8610ec3565b5b60006112b785828601610fd8565b92505060206112c885828601610fd8565b9150509250929050565b6000819050919050565b6112e5816112d2565b82525050565b600060208201905061130060008301846112dc565b92915050565b600067ffffffffffffffff82111561132157611320610ee3565b5b602082029050602081019050919050565b61133b816112d2565b811461134657600080fd5b50565b60008135905061135881611332565b92915050565b600061137161136c84611306565b610f43565b9050808382526020820190506020840283018581111561139457611393610f8a565b5b835b818110156113bd57806113a98882611349565b845260208401935050602081019050611396565b5050509392505050565b600082601f8301126113dc576113db610ecd565b5b81356113ec84826020860161135e565b91505092915050565b60008060006060848603121561140e5761140d610ec3565b5b600084013567ffffffffffffffff81111561142c5761142b610ec8565b5b61143886828701611056565b935050602084013567ffffffffffffffff81111561145957611458610ec8565b5b61146586828701611056565b925050604084013567ffffffffffffffff81111561148657611485610ec8565b5b611492868287016113c7565b9150509250925092565b6000806000806000806000806000806101408b8d0312156114c0576114bf610ec3565b5b60006114ce8d828e01610fd8565b9a505060206114df8d828e01610fd8565b99505060406114f08d828e01610fd8565b98505060606115018d828e01611349565b97505060808b013567ffffffffffffffff81111561152257611521610ec8565b5b61152e8d828e01611137565b96505060a061153f8d828e01611349565b95505060c06115508d828e01611349565b94505060e06115618d828e01611349565b9350506101006115738d828e01610fd8565b9250506101208b013567ffffffffffffffff81111561159557611594610ec8565b5b6115a18d828e01611137565b9150509295989b9194979a5092959850565b600080600080608085870312156115cd576115cc610ec3565b5b600085013567ffffffffffffffff8111156115eb576115ea610ec8565b5b6115f787828801611056565b945050602085013567ffffffffffffffff81111561161857611617610ec8565b5b61162487828801611056565b935050604085013567ffffffffffffffff81111561164557611644610ec8565b5b611651878288016113c7565b925050606085013567ffffffffffffffff81111561167257611671610ec8565b5b61167e878288016111ec565b91505092959194509250565b6000806000606084860312156116a3576116a2610ec3565b5b60006116b186828701610fd8565b93505060206116c286828701610fd8565b92505060406116d386828701611349565b9150509250925092565b600082825260208201905092915050565b7f446578657320616e642063616c6c7320617272617973206d757374206861766560008201527f207468652073616d65206c656e67746800000000000000000000000000000000602082015250565b600061174a6030836116dd565b9150611755826116ee565b604082019050919050565b600060208201905081810360008301526117798161173d565b9050919050565b7f4e487b7100000000000000000000000000000000000000000000000000000000600052603260045260246000fd5b600081519050919050565b600081905092915050565b60005b838110156117e35780820151818401526020810190506117c8565b60008484015250505050565b60006117fa826117af565b61180481856117ba565b93506118148185602086016117c5565b80840191505092915050565b600061182c82846117ef565b915081905092915050565b7f53776170206661696c6564000000000000000000000000000000000000000000600082015250565b600061186d600b836116dd565b915061187882611837565b602082019050919050565b6000602082019050818103600083015261189c81611860565b9050919050565b7f4e487b7100000000000000000000000000000000000000000000000000000000600052601160045260246000fd5b60006118dd826112d2565b91507fffffffffffffffffffffffffffffffffffffffffffffffffffffffffffffffff820361190f5761190e6118a3565b5b600182019050919050565b61192381610faf565b82525050565b600060408201905061193e600083018561191a565b61194b602083018461191a565b9392505050565b60008151905061196181611332565b92915050565b60006020828403121561197d5761197c610ec3565b5b600061198b84828501611952565b91505092915050565b7f496e70757420617272617973206d7573742068617665207468652073616d652060008201527f6c656e6774680000000000000000000000000000000000000000000000000000602082015250565b60006119f06026836116dd565b91506119fb82611994565b604082019050919050565b60006020820190508181036000830152611a1f816119e3565b9050919050565b6000606082019050611a3b600083018661191a565b611a48602083018561191a565b611a5560408301846112dc565b949350505050565b60008115159050919050565b611a7281611a5d565b8114611a7d57600080fd5b50565b600081519050611a8f81611a69565b92915050565b600060208284031215611aab57611aaa610ec3565b5b6000611ab984828501611a80565b91505092915050565b7f5472616e73666572206661696c65640000000000000000000000000000000000600082015250565b6000611af8600f836116dd565b9150611b0382611ac2565b602082019050919050565b60006020820190508181036000830152611b2781611aeb565b9050919050565b7f5472616e7366657220746f20444558206661696c656400000000000000000000600082015250565b6000611b646016836116dd565b9150611b6f82611b2e565b602082019050919050565b60006020820190508181036000830152611b9381611b57565b9050919050565b6000604082019050611baf600083018561191a565b611bbc60208301846112dc565b9392505050565b7f417070726f76616c206661696c65640000000000000000000000000000000000600082015250565b6000611bf9600f836116dd565b9150611c0482611bc3565b602082019050919050565b60006020820190508181036000830152611c2881611bec565b9050919050565b6000602082019050611c44600083018461191a565b92915050565b600082825260208201905092915050565b6000611c66826117af565b611c708185611c4a565b9350611c808185602086016117c5565b611c8981610ed2565b840191505092915050565b6000608082019050611ca960008301876112dc565b611cb660208301866112dc565b611cc3604083018561191a565b8181036060830152611cd58184611c5b565b905095945050505050565b60008160e01c9050919050565b600060033d1115611d0c5760046000803e611d09600051611ce0565b90505b90565b600060443d10611d9c57611d21610eb9565b60043d036004823e80513d602482011167ffffffffffffffff82111715611d49575050611d9c565b808201805167ffffffffffffffff811115611d675750505050611d9c565b80602083010160043d038501811115611d84575050505050611d9c565b611d9382602001850186610f12565b82955050505050505b90565b600081519050919050565b6000611db582611d9f565b611dbf81856116dd565b9350611dcf8185602086016117c5565b611dd881610ed2565b840191505092915050565b60006020820190508181036000830152611dfd8184611daa565b905092915050565b6000611e10826112d2565b9150611e1b836112d2565b9250828203905081811115611e3357611e326118a3565b5b92915050565b7f526563656976656420616d6f756e74206973206c657373207468616e2065787060008201527f6563746564000000000000000000000000000000000000000000000000000000602082015250565b6000611e956025836116dd565b9150611ea082611e39565b604082019050919050565b60006020820190508181036000830152611ec481611e88565b9050919050565b7f417272617973206d7573742068617665207468652073616d65206c656e677468600082015250565b6000611f016020836116dd565b9150611f0c82611ecb565b602082019050919050565b60006020820190508181036000830152611f3081611ef4565b9050919050565b60006040820190508181036000830152611f518185611daa565b9050611f6060208301846112dc565b9392505050565b7f4e487b7100000000000000000000000000000000000000000000000000000000600052605160045260246000fdfea2646970667358221220cf024d6e0314839db0ba50c04d9dd7cb18e74eb0271dd92fac1e96f0d6f6012064736f6c63430008130033",
  "linkReferences": {},
  "deployedLinkReferences": {}
}